{"abi":[{"type":"constructor","inputs":[{"name":"_wstETH","type":"address","internalType":"address"}],"stateMutability":"nonpayable"},{"type":"function","name":"MIN_DEPOSIT","inputs":[],"outputs":[{"name":"","type":"uint256","internalType":"uint256"}],"stateMutability":"view"},{"type":"function","name":"WITHDRAWAL_LOCK","inputs":[],"outputs":[{"name":"","type":"uint256","internalType":"uint256"}],"stateMutability":"view"},{"type":"function","name":"agentERC8004Id","inputs":[{"name":"","type":"address","internalType":"address"}],"outputs":[{"name":"","type":"uint256","internalType":"uint256"}],"stateMutability":"view"},{"type":"function","name":"allowlistSpending","inputs":[{"name":"recipient","type":"address","internalType":"address"},{"name":"serviceName","type":"string","internalType":"string"}],"outputs":[],"stateMutability":"nonpayable"},{"type":"function","name":"cancelWithdrawal","inputs":[],"outputs":[],"stateMutability":"nonpayable"},{"type":"function","name":"completeWithdrawal","inputs":[],"outputs":[],"stateMutability":"nonpayable"},{"type":"function","name":"delistSpending","inputs":[{"name":"recipient","type":"address","internalType":"address"}],"outputs":[],"stateMutability":"nonpayable"},{"type":"function","name":"deposit","inputs":[{"name":"amount","type":"uint256","internalType":"uint256"},{"name":"erc8004Id","type":"uint256","internalType":"uint256"}],"outputs":[],"stateMutability":"nonpayable"},{"type":"function","name":"getAvailableYield","inputs":[{"name":"agent","type":"address","internalType":"address"}],"outputs":[{"name":"","type":"uint256","internalType":"uint256"}],"stateMutability":"view"},{"type":"function","name":"getTreasuryInfo","inputs":[{"name":"agent","type":"address","internalType":"address"}],"outputs":[{"name":"principal","type":"uint256","internalType":"uint256"},{"name":"availableYield","type":"uint256","internalType":"uint256"},{"name":"totalYieldSpent","type":"uint256","internalType":"uint256"},{"name":"depositTime","type":"uint256","internalType":"uint256"},{"name":"exists","type":"bool","internalType":"bool"}],"stateMutability":"view"},{"type":"function","name":"getWithdrawalInfo","inputs":[{"name":"agent","type":"address","internalType":"address"}],"outputs":[{"name":"amount","type":"uint256","internalType":"uint256"},{"name":"unlockTime","type":"uint256","internalType":"uint256"},{"name":"ready","type":"bool","internalType":"bool"}],"stateMutability":"view"},{"type":"function","name":"initiateWithdrawal","inputs":[{"name":"amount","type":"uint256","internalType":"uint256"}],"outputs":[],"stateMutability":"nonpayable"},{"type":"function","name":"isWithdrawalReady","inputs":[{"name":"agent","type":"address","internalType":"address"}],"outputs":[{"name":"","type":"bool","internalType":"bool"}],"stateMutability":"view"},{"type":"function","name":"owner","inputs":[],"outputs":[{"name":"","type":"address","internalType":"address"}],"stateMutability":"view"},{"type":"function","name":"pendingWithdrawals","inputs":[{"name":"","type":"address","internalType":"address"}],"outputs":[{"name":"amount","type":"uint256","internalType":"uint256"},{"name":"unlockTime","type":"uint256","internalType":"uint256"},{"name":"exists","type":"bool","internalType":"bool"}],"stateMutability":"view"},{"type":"function","name":"renounceOwnership","inputs":[],"outputs":[],"stateMutability":"nonpayable"},{"type":"function","name":"serviceProviderNames","inputs":[{"name":"","type":"address","internalType":"address"}],"outputs":[{"name":"","type":"string","internalType":"string"}],"stateMutability":"view"},{"type":"function","name":"spendYield","inputs":[{"name":"recipient","type":"address","internalType":"address"},{"name":"amount","type":"uint256","internalType":"uint256"},{"name":"purpose","type":"string","internalType":"string"}],"outputs":[],"stateMutability":"nonpayable"},{"type":"function","name":"spendingAllowlist","inputs":[{"name":"","type":"address","internalType":"address"}],"outputs":[{"name":"","type":"bool","internalType":"bool"}],"stateMutability":"view"},{"type":"function","name":"totalPrincipal","inputs":[],"outputs":[{"name":"","type":"uint256","internalType":"uint256"}],"stateMutability":"view"},{"type":"function","name":"transferOwnership","inputs":[{"name":"newOwner","type":"address","internalType":"address"}],"outputs":[],"stateMutability":"nonpayable"},{"type":"function","name":"treasuries","inputs":[{"name":"","type":"address","internalType":"address"}],"outputs":[{"name":"principalShares","type":"uint256","internalType":"uint256"},{"name":"lastYieldAccrued","type":"uint256","internalType":"uint256"},{"name":"totalYieldSpent","type":"uint256","internalType":"uint256"},{"name":"depositTimestamp","type":"uint256","internalType":"uint256"},{"name":"exists","type":"bool","internalType":"bool"}],"stateMutability":"view"},{"type":"function","name":"wstETH","inputs":[],"outputs":[{"name":"","type":"address","internalType":"contract IWstETH"}],"stateMutability":"view"},{"type":"event","name":"AgentRegistered","inputs":[{"name":"agent","type":"address","indexed":true,"internalType":"address"},{"name":"erc8004Id","type":"uint256","indexed":false,"internalType":"uint256"}],"anonymous":false},{"type":"event","name":"Deposited","inputs":[{"name":"agent","type":"address","indexed":true,"internalType":"address"},{"name":"wstETHAmount","type":"uint256","indexed":false,"internalType":"uint256"}],"anonymous":false},{"type":"event","name":"OwnershipTransferred","inputs":[{"name":"previousOwner","type":"address","indexed":true,"internalType":"address"},{"name":"newOwner","type":"address","indexed":true,"internalType":"address"}],"anonymous":false},{"type":"event","name":"PrincipalWithdrawn","inputs":[{"name":"agent","type":"address","indexed":true,"internalType":"address"},{"name":"amount","type":"uint256","indexed":false,"internalType":"uint256"}],"anonymous":false},{"type":"event","name":"SpendingAllowlisted","inputs":[{"name":"recipient","type":"address","indexed":true,"internalType":"address"},{"name":"service","type":"string","indexed":false,"internalType":"string"}],"anonymous":false},{"type":"event","name":"SpendingDelisted","inputs":[{"name":"recipient","type":"address","indexed":true,"internalType":"address"}],"anonymous":false},{"type":"event","name":"WithdrawalCancelled","inputs":[{"name":"agent","type":"address","indexed":true,"internalType":"address"}],"anonymous":false},{"type":"event","name":"WithdrawalInitiated","inputs":[{"name":"agent","type":"address","indexed":true,"internalType":"address"},{"name":"amount","type":"uint256","indexed":false,"internalType":"uint256"},{"name":"unlockTime","type":"uint256","indexed":false,"internalType":"uint256"}],"anonymous":false},{"type":"event","name":"YieldSpent","inputs":[{"name":"agent","type":"address","indexed":true,"internalType":"address"},{"name":"recipient","type":"address","indexed":true,"internalType":"address"},{"name":"amount","type":"uint256","indexed":false,"internalType":"uint256"},{"name":"purpose","type":"string","indexed":false,"internalType":"string"}],"anonymous":false},{"type":"error","name":"OwnableInvalidOwner","inputs":[{"name":"owner","type":"address","internalType":"address"}]},{"type":"error","name":"OwnableUnauthorizedAccount","inputs":[{"name":"account","type":"address","internalType":"address"}]},{"type":"error","name":"ReentrancyGuardReentrantCall","inputs":[]}],"bytecode":{"object":"0x60a060405234801561000f575f5ffd5b50604051612ede380380612ede833981810160405281019061003191906102cf565b335f73ffffffffffffffffffffffffffffffffffffffff168173ffffffffffffffffffffffffffffffffffffffff16036100a2575f6040517f1e4fbdf70000000000000000000000000000000000000000000000000000000081526004016100999190610309565b60405180910390fd5b6100b18161017e60201b60201c565b5060016100d06100c561023f60201b60201c565b61026860201b60201c565b5f01819055505f73ffffffffffffffffffffffffffffffffffffffff168173ffffffffffffffffffffffffffffffffffffffff1603610144576040517f08c379a000000000000000000000000000000000000000000000000000000000815260040161013b9061037c565b60405180910390fd5b8073ffffffffffffffffffffffffffffffffffffffff1660808173ffffffffffffffffffffffffffffffffffffffff16815250505061039a565b5f5f5f9054906101000a900473ffffffffffffffffffffffffffffffffffffffff169050815f5f6101000a81548173ffffffffffffffffffffffffffffffffffffffff021916908373ffffffffffffffffffffffffffffffffffffffff1602179055508173ffffffffffffffffffffffffffffffffffffffff168173ffffffffffffffffffffffffffffffffffffffff167f8be0079c531659141344cd1fd0a4f28419497f9722a3daafe3b4186f6b6457e060405160405180910390a35050565b5f7f9b779b17422d0df92223018b32b4d1fa46e071723d6817e2486d003becc55f005f1b905090565b5f819050919050565b5f5ffd5b5f73ffffffffffffffffffffffffffffffffffffffff82169050919050565b5f61029e82610275565b9050919050565b6102ae81610294565b81146102b8575f5ffd5b50565b5f815190506102c9816102a5565b92915050565b5f602082840312156102e4576102e3610271565b5b5f6102f1848285016102bb565b91505092915050565b61030381610294565b82525050565b5f60208201905061031c5f8301846102fa565b92915050565b5f82825260208201905092915050565b7f496e76616c6964207773744554482061646472657373000000000000000000005f82015250565b5f610366601683610322565b915061037182610332565b602082019050919050565b5f6020820190508181035f8301526103938161035a565b9050919050565b608051612b026103dc5f395f8181610bd001528181610daf01528181610e7d01528181611125015281816114e90152818161167b0152611b510152612b025ff3fe608060405234801561000f575f5ffd5b506004361061014b575f3560e01c8063715018a6116100c1578063c32ffb501161007a578063c32ffb50146103a5578063e03ff7cb146103d5578063e1e158a5146103df578063e2bbb158146103fd578063f2fde38b14610419578063f3f43703146104355761014b565b8063715018a6146102cf5780638bd34532146102d95780638da5cb5b14610309578063a0f2ed0714610327578063a2bda5cb14610345578063b2325876146103755761014b565b8063252c892711610113578063252c8927146101f757806346eefd03146102275780634aa07e64146102435780634b1533b2146102615780634bdc4b301461027f5780634f1eb1291461029b5761014b565b80630849b2341461014f57806309d9be621461018357806312edde5e1461019f578063208120a7146101bb57806322611280146101ed575b5f5ffd5b61016960048036038101906101649190611d44565b610467565b60405161017a959493929190611da1565b60405180910390f35b61019d60048036038101906101989190611e53565b6104a5565b005b6101b960048036038101906101b49190611eda565b6105a4565b005b6101d560048036038101906101d09190611d44565b610849565b6040516101e493929190611f05565b60405180910390f35b6101f56108c4565b005b610211600480360381019061020c9190611d44565b610a91565b60405161021e9190611faa565b60405180910390f35b610241600480360381019061023c9190611d44565b610b2c565b005b61024b610bce565b6040516102589190612025565b60405180910390f35b610269610bf2565b604051610276919061203e565b60405180910390f35b61029960048036038101906102949190612057565b610bf8565b005b6102b560048036038101906102b09190611d44565b610fcf565b6040516102c6959493929190611da1565b60405180910390f35b6102d7611050565b005b6102f360048036038101906102ee9190611d44565b611063565b604051610300919061203e565b60405180910390f35b610311611078565b60405161031e91906120d7565b60405180910390f35b61032f61109f565b60405161033c919061203e565b60405180910390f35b61035f600480360381019061035a9190611d44565b6110a6565b60405161036c91906120f0565b60405180910390f35b61038f600480360381019061038a9190611d44565b6110c3565b60405161039c919061203e565b60405180910390f35b6103bf60048036038101906103ba9190611d44565b61123a565b6040516103cc91906120f0565b60405180910390f35b6103dd6112a4565b005b6103e761161c565b6040516103f4919061203e565b60405180910390f35b61041760048036038101906104129190612109565b611627565b005b610433600480360381019061042e9190611d44565b611914565b005b61044f600480360381019061044a9190611d44565b611998565b60405161045e93929190611f05565b60405180910390f35b6001602052805f5260405f205f91509050805f015490806001015490806002015490806003015490806004015f9054906101000a900460ff16905085565b6104ad6119ca565b600160035f8573ffffffffffffffffffffffffffffffffffffffff1673ffffffffffffffffffffffffffffffffffffffff1681526020019081526020015f205f6101000a81548160ff021916908315150217905550818160045f8673ffffffffffffffffffffffffffffffffffffffff1673ffffffffffffffffffffffffffffffffffffffff1681526020019081526020015f20918261054e929190612383565b508273ffffffffffffffffffffffffffffffffffffffff167f6656f0611d1347185270943bb9b4958736802177c4450b1739c335375158098e838360405161059792919061248a565b60405180910390a2505050565b6105ac611a51565b60015f3373ffffffffffffffffffffffffffffffffffffffff1673ffffffffffffffffffffffffffffffffffffffff1681526020019081526020015f206004015f9054906101000a900460ff16610638576040517f08c379a000000000000000000000000000000000000000000000000000000000815260040161062f906124f6565b60405180910390fd5b5f60015f3373ffffffffffffffffffffffffffffffffffffffff1673ffffffffffffffffffffffffffffffffffffffff1681526020019081526020015f20905081815f015410156106be576040517f08c379a00000000000000000000000000000000000000000000000000000000081526004016106b59061255e565b60405180910390fd5b60025f3373ffffffffffffffffffffffffffffffffffffffff1673ffffffffffffffffffffffffffffffffffffffff1681526020019081526020015f206002015f9054906101000a900460ff161561074b576040517f08c379a0000000000000000000000000000000000000000000000000000000008152600401610742906125c6565b60405180910390fd5b5f62093a804261075b9190612611565b905060405180606001604052808481526020018281526020016001151581525060025f3373ffffffffffffffffffffffffffffffffffffffff1673ffffffffffffffffffffffffffffffffffffffff1681526020019081526020015f205f820151815f0155602082015181600101556040820151816002015f6101000a81548160ff0219169083151502179055509050503373ffffffffffffffffffffffffffffffffffffffff167f31f69201fab7912e3ec9850e3ab705964bf46d9d4276bdcbb6d05e965e5f54018483604051610834929190612644565b60405180910390a25050610846611a73565b50565b5f5f5f5f60025f8673ffffffffffffffffffffffffffffffffffffffff1673ffffffffffffffffffffffffffffffffffffffff1681526020019081526020015f209050805f01548160010154826002015f9054906101000a900460ff1680156108b6575082600101544210155b935093509350509193909250565b6108cc611a51565b60015f3373ffffffffffffffffffffffffffffffffffffffff1673ffffffffffffffffffffffffffffffffffffffff1681526020019081526020015f206004015f9054906101000a900460ff16610958576040517f08c379a000000000000000000000000000000000000000000000000000000000815260040161094f906124f6565b60405180910390fd5b60025f3373ffffffffffffffffffffffffffffffffffffffff1673ffffffffffffffffffffffffffffffffffffffff1681526020019081526020015f206002015f9054906101000a900460ff166109e4576040517f08c379a00000000000000000000000000000000000000000000000000000000081526004016109db906126b5565b60405180910390fd5b3373ffffffffffffffffffffffffffffffffffffffff167fc51fdb96728de385ec7859819e3997bc618362ef0dbca0ad051d856866cda3db60405160405180910390a260025f3373ffffffffffffffffffffffffffffffffffffffff1673ffffffffffffffffffffffffffffffffffffffff1681526020019081526020015f205f5f82015f9055600182015f9055600282015f6101000a81549060ff02191690555050610a8f611a73565b565b6004602052805f5260405f205f915090508054610aad906121ab565b80601f0160208091040260200160405190810160405280929190818152602001828054610ad9906121ab565b8015610b245780601f10610afb57610100808354040283529160200191610b24565b820191905f5260205f20905b815481529060010190602001808311610b0757829003601f168201915b505050505081565b610b346119ca565b5f60035f8373ffffffffffffffffffffffffffffffffffffffff1673ffffffffffffffffffffffffffffffffffffffff1681526020019081526020015f205f6101000a81548160ff0219169083151502179055508073ffffffffffffffffffffffffffffffffffffffff167fb15687505ad72b9fc8d24fa0a887e668f29301ded30f839a7ad250fad878806060405160405180910390a250565b7f000000000000000000000000000000000000000000000000000000000000000081565b60065481565b610c00611a51565b60015f3373ffffffffffffffffffffffffffffffffffffffff1673ffffffffffffffffffffffffffffffffffffffff1681526020019081526020015f206004015f9054906101000a900460ff16610c8c576040517f08c379a0000000000000000000000000000000000000000000000000000000008152600401610c83906124f6565b60405180910390fd5b8360035f8273ffffffffffffffffffffffffffffffffffffffff1673ffffffffffffffffffffffffffffffffffffffff1681526020019081526020015f205f9054906101000a900460ff16610d16576040517f08c379a0000000000000000000000000000000000000000000000000000000008152600401610d0d9061271d565b60405180910390fd5b5f60015f3373ffffffffffffffffffffffffffffffffffffffff1673ffffffffffffffffffffffffffffffffffffffff1681526020019081526020015f2090505f610d60336110c3565b905085811015610da5576040517f08c379a0000000000000000000000000000000000000000000000000000000008152600401610d9c90612785565b60405180910390fd5b81600201546006547f000000000000000000000000000000000000000000000000000000000000000073ffffffffffffffffffffffffffffffffffffffff166370a08231306040518263ffffffff1660e01b8152600401610e0691906120d7565b602060405180830381865afa158015610e21573d5f5f3e3d5ffd5b505050506040513d601f19601f82011682018060405250810190610e4591906127b7565b610e4f91906127e2565b610e599190612611565b826001018190555085826002015f828254610e749190612611565b925050819055507f000000000000000000000000000000000000000000000000000000000000000073ffffffffffffffffffffffffffffffffffffffff1663a9059cbb88886040518363ffffffff1660e01b8152600401610ed6929190612815565b6020604051808303815f875af1158015610ef2573d5f5f3e3d5ffd5b505050506040513d601f19601f82011682018060405250810190610f169190612866565b610f55576040517f08c379a0000000000000000000000000000000000000000000000000000000008152600401610f4c906128db565b60405180910390fd5b8673ffffffffffffffffffffffffffffffffffffffff163373ffffffffffffffffffffffffffffffffffffffff167f1235a435611b972175c29482589e977b7d315a9c2335de62aa5412c5bb8f1678888888604051610fb6939291906128f9565b60405180910390a3505050610fc9611a73565b50505050565b5f5f5f5f5f5f60015f8873ffffffffffffffffffffffffffffffffffffffff1673ffffffffffffffffffffffffffffffffffffffff1681526020019081526020015f209050805f0154611021886110c3565b82600201548360030154846004015f9054906101000a900460ff16955095509550955095505091939590929450565b6110586119ca565b6110615f611a8d565b565b6005602052805f5260405f205f915090505481565b5f5f5f9054906101000a900473ffffffffffffffffffffffffffffffffffffffff16905090565b62093a8081565b6003602052805f5260405f205f915054906101000a900460ff1681565b5f5f60015f8473ffffffffffffffffffffffffffffffffffffffff1673ffffffffffffffffffffffffffffffffffffffff1681526020019081526020015f209050806004015f9054906101000a900460ff16611122575f915050611235565b5f7f000000000000000000000000000000000000000000000000000000000000000073ffffffffffffffffffffffffffffffffffffffff166370a08231306040518263ffffffff1660e01b815260040161117c91906120d7565b602060405180830381865afa158015611197573d5f5f3e3d5ffd5b505050506040513d601f19601f820116820180604052508101906111bb91906127b7565b90505f600654826111cc91906127e2565b90505f600654036111e2575f9350505050611235565b5f600654845f0154836111f59190612929565b6111ff9190612997565b9050835f0154846001015461121491906127e2565b8460020154826112249190612611565b61122e91906127e2565b9450505050505b919050565b5f5f60025f8473ffffffffffffffffffffffffffffffffffffffff1673ffffffffffffffffffffffffffffffffffffffff1681526020019081526020015f209050806002015f9054906101000a900460ff16801561129c575080600101544210155b915050919050565b6112ac611a51565b60015f3373ffffffffffffffffffffffffffffffffffffffff1673ffffffffffffffffffffffffffffffffffffffff1681526020019081526020015f206004015f9054906101000a900460ff16611338576040517f08c379a000000000000000000000000000000000000000000000000000000000815260040161132f906124f6565b60405180910390fd5b5f60025f3373ffffffffffffffffffffffffffffffffffffffff1673ffffffffffffffffffffffffffffffffffffffff1681526020019081526020015f209050806002015f9054906101000a900460ff166113c8576040517f08c379a00000000000000000000000000000000000000000000000000000000081526004016113bf906126b5565b60405180910390fd5b806001015442101561140f576040517f08c379a000000000000000000000000000000000000000000000000000000000815260040161140690612a11565b60405180910390fd5b5f60015f3373ffffffffffffffffffffffffffffffffffffffff1673ffffffffffffffffffffffffffffffffffffffff1681526020019081526020015f2090505f825f0154905080825f015f82825461146891906127e2565b925050819055508060065f82825461148091906127e2565b9250508190555060025f3373ffffffffffffffffffffffffffffffffffffffff1673ffffffffffffffffffffffffffffffffffffffff1681526020019081526020015f205f5f82015f9055600182015f9055600282015f6101000a81549060ff021916905550507f000000000000000000000000000000000000000000000000000000000000000073ffffffffffffffffffffffffffffffffffffffff1663a9059cbb33836040518363ffffffff1660e01b8152600401611542929190612815565b6020604051808303815f875af115801561155e573d5f5f3e3d5ffd5b505050506040513d601f19601f820116820180604052508101906115829190612866565b6115c1576040517f08c379a00000000000000000000000000000000000000000000000000000000081526004016115b8906128db565b60405180910390fd5b3373ffffffffffffffffffffffffffffffffffffffff167f6a0d6da0beb3b4dc509c4559b55ca29b5f90af6d351a3f9365bb5ab6b572c96082604051611607919061203e565b60405180910390a250505061161a611a73565b565b66038d7ea4c6800081565b61162f611a51565b66038d7ea4c68000821015611679576040517f08c379a000000000000000000000000000000000000000000000000000000000815260040161167090612a79565b60405180910390fd5b7f000000000000000000000000000000000000000000000000000000000000000073ffffffffffffffffffffffffffffffffffffffff166323b872dd3330856040518463ffffffff1660e01b81526004016116d693929190612a97565b6020604051808303815f875af11580156116f2573d5f5f3e3d5ffd5b505050506040513d601f19601f820116820180604052508101906117169190612866565b611755576040517f08c379a000000000000000000000000000000000000000000000000000000000815260040161174c906128db565b60405180910390fd5b5f60015f3373ffffffffffffffffffffffffffffffffffffffff1673ffffffffffffffffffffffffffffffffffffffff1681526020019081526020015f209050806004015f9054906101000a900460ff1661187e5782815f01819055508281600101819055506001816004015f6101000a81548160ff0219169083151502179055504281600301819055505f821115611879578160055f3373ffffffffffffffffffffffffffffffffffffffff1673ffffffffffffffffffffffffffffffffffffffff1681526020019081526020015f20819055503373ffffffffffffffffffffffffffffffffffffffff167fd1b844701695237443dd884ed7193d9c8788f3befd35adc0910472eb166f330683604051611870919061203e565b60405180910390a25b6118a1565b61188781611b4e565b82815f015f8282546118999190612611565b925050819055505b8260065f8282546118b29190612611565b925050819055503373ffffffffffffffffffffffffffffffffffffffff167f2da466a7b24304f47e87fa2e1e5a81b9831ce54fec19055ce277ca2f39ba42c4846040516118ff919061203e565b60405180910390a250611910611a73565b5050565b61191c6119ca565b5f73ffffffffffffffffffffffffffffffffffffffff168173ffffffffffffffffffffffffffffffffffffffff160361198c575f6040517f1e4fbdf700000000000000000000000000000000000000000000000000000000815260040161198391906120d7565b60405180910390fd5b61199581611a8d565b50565b6002602052805f5260405f205f91509050805f015490806001015490806002015f9054906101000a900460ff16905083565b6119d2611c4c565b73ffffffffffffffffffffffffffffffffffffffff166119f0611078565b73ffffffffffffffffffffffffffffffffffffffff1614611a4f57611a13611c4c565b6040517f118cdaa7000000000000000000000000000000000000000000000000000000008152600401611a4691906120d7565b60405180910390fd5b565b611a59611c53565b6002611a6b611a66611c94565b611cbd565b5f0181905550565b6001611a85611a80611c94565b611cbd565b5f0181905550565b5f5f5f9054906101000a900473ffffffffffffffffffffffffffffffffffffffff169050815f5f6101000a81548173ffffffffffffffffffffffffffffffffffffffff021916908373ffffffffffffffffffffffffffffffffffffffff1602179055508173ffffffffffffffffffffffffffffffffffffffff168173ffffffffffffffffffffffffffffffffffffffff167f8be0079c531659141344cd1fd0a4f28419497f9722a3daafe3b4186f6b6457e060405160405180910390a35050565b5f7f000000000000000000000000000000000000000000000000000000000000000073ffffffffffffffffffffffffffffffffffffffff166370a08231306040518263ffffffff1660e01b8152600401611ba891906120d7565b602060405180830381865afa158015611bc3573d5f5f3e3d5ffd5b505050506040513d601f19601f82011682018060405250810190611be791906127b7565b90505f60065482611bf891906127e2565b90505f600654118015611c0a57505f81115b15611c47575f600654845f015483611c229190612929565b611c2c9190612997565b905080845f0154611c3d9190612611565b8460010181905550505b505050565b5f33905090565b611c5b611cc6565b15611c92576040517f3ee5aeb500000000000000000000000000000000000000000000000000000000815260040160405180910390fd5b565b5f7f9b779b17422d0df92223018b32b4d1fa46e071723d6817e2486d003becc55f005f1b905090565b5f819050919050565b5f6002611cd9611cd4611c94565b611cbd565b5f015414905090565b5f5ffd5b5f5ffd5b5f73ffffffffffffffffffffffffffffffffffffffff82169050919050565b5f611d1382611cea565b9050919050565b611d2381611d09565b8114611d2d575f5ffd5b50565b5f81359050611d3e81611d1a565b92915050565b5f60208284031215611d5957611d58611ce2565b5b5f611d6684828501611d30565b91505092915050565b5f819050919050565b611d8181611d6f565b82525050565b5f8115159050919050565b611d9b81611d87565b82525050565b5f60a082019050611db45f830188611d78565b611dc16020830187611d78565b611dce6040830186611d78565b611ddb6060830185611d78565b611de86080830184611d92565b9695505050505050565b5f5ffd5b5f5ffd5b5f5ffd5b5f5f83601f840112611e1357611e12611df2565b5b8235905067ffffffffffffffff811115611e3057611e2f611df6565b5b602083019150836001820283011115611e4c57611e4b611dfa565b5b9250929050565b5f5f5f60408486031215611e6a57611e69611ce2565b5b5f611e7786828701611d30565b935050602084013567ffffffffffffffff811115611e9857611e97611ce6565b5b611ea486828701611dfe565b92509250509250925092565b611eb981611d6f565b8114611ec3575f5ffd5b50565b5f81359050611ed481611eb0565b92915050565b5f60208284031215611eef57611eee611ce2565b5b5f611efc84828501611ec6565b91505092915050565b5f606082019050611f185f830186611d78565b611f256020830185611d78565b611f326040830184611d92565b949350505050565b5f81519050919050565b5f82825260208201905092915050565b8281835e5f83830152505050565b5f601f19601f8301169050919050565b5f611f7c82611f3a565b611f868185611f44565b9350611f96818560208601611f54565b611f9f81611f62565b840191505092915050565b5f6020820190508181035f830152611fc28184611f72565b905092915050565b5f819050919050565b5f611fed611fe8611fe384611cea565b611fca565b611cea565b9050919050565b5f611ffe82611fd3565b9050919050565b5f61200f82611ff4565b9050919050565b61201f81612005565b82525050565b5f6020820190506120385f830184612016565b92915050565b5f6020820190506120515f830184611d78565b92915050565b5f5f5f5f6060858703121561206f5761206e611ce2565b5b5f61207c87828801611d30565b945050602061208d87828801611ec6565b935050604085013567ffffffffffffffff8111156120ae576120ad611ce6565b5b6120ba87828801611dfe565b925092505092959194509250565b6120d181611d09565b82525050565b5f6020820190506120ea5f8301846120c8565b92915050565b5f6020820190506121035f830184611d92565b92915050565b5f5f6040838503121561211f5761211e611ce2565b5b5f61212c85828601611ec6565b925050602061213d85828601611ec6565b9150509250929050565b5f82905092915050565b7f4e487b71000000000000000000000000000000000000000000000000000000005f52604160045260245ffd5b7f4e487b71000000000000000000000000000000000000000000000000000000005f52602260045260245ffd5b5f60028204905060018216806121c257607f821691505b6020821081036121d5576121d461217e565b5b50919050565b5f819050815f5260205f209050919050565b5f6020601f8301049050919050565b5f82821b905092915050565b5f600883026122377fffffffffffffffffffffffffffffffffffffffffffffffffffffffffffffffff826121fc565b61224186836121fc565b95508019841693508086168417925050509392505050565b5f61227361226e61226984611d6f565b611fca565b611d6f565b9050919050565b5f819050919050565b61228c83612259565b6122a06122988261227a565b848454612208565b825550505050565b5f5f905090565b6122b76122a8565b6122c2818484612283565b505050565b5f5b828110156122e8576122dd5f8284016122af565b6001810190506122c9565b505050565b601f82111561233b578282111561233a57612307816121db565b612310836121ed565b612319856121ed565b6020861015612326575f90505b808301612335828403826122c7565b505050505b5b505050565b5f82821c905092915050565b5f61235b5f1984600802612340565b1980831691505092915050565b5f612373838361234c565b9150826002028217905092915050565b61238d8383612147565b67ffffffffffffffff8111156123a6576123a5612151565b5b6123b082546121ab565b6123bb8282856122ed565b5f601f8311600181146123e8575f84156123d6578287013590505b6123e08582612368565b865550612447565b601f1984166123f6866121db565b5f5b8281101561241d578489013582556001820191506020850194506020810190506123f8565b8683101561243a5784890135612436601f89168261234c565b8355505b6001600288020188555050505b50505050505050565b828183375f83830152505050565b5f6124698385611f44565b9350612476838584612450565b61247f83611f62565b840190509392505050565b5f6020820190508181035f8301526124a381848661245e565b90509392505050565b7f4e6f20747265617375727920666f756e640000000000000000000000000000005f82015250565b5f6124e0601183611f44565b91506124eb826124ac565b602082019050919050565b5f6020820190508181035f83015261250d816124d4565b9050919050565b7f496e73756666696369656e74207072696e636970616c000000000000000000005f82015250565b5f612548601683611f44565b915061255382612514565b602082019050919050565b5f6020820190508181035f8301526125758161253c565b9050919050565b7f5769746864726177616c20616c72656164792070656e64696e670000000000005f82015250565b5f6125b0601a83611f44565b91506125bb8261257c565b602082019050919050565b5f6020820190508181035f8301526125dd816125a4565b9050919050565b7f4e487b71000000000000000000000000000000000000000000000000000000005f52601160045260245ffd5b5f61261b82611d6f565b915061262683611d6f565b925082820190508082111561263e5761263d6125e4565b5b92915050565b5f6040820190506126575f830185611d78565b6126646020830184611d78565b9392505050565b7f4e6f2070656e64696e67207769746864726177616c00000000000000000000005f82015250565b5f61269f601583611f44565b91506126aa8261266b565b602082019050919050565b5f6020820190508181035f8301526126cc81612693565b9050919050565b7f526563697069656e74206e6f7420616c6c6f776c6973746564000000000000005f82015250565b5f612707601983611f44565b9150612712826126d3565b602082019050919050565b5f6020820190508181035f830152612734816126fb565b9050919050565b7f496e73756666696369656e74207969656c6400000000000000000000000000005f82015250565b5f61276f601283611f44565b915061277a8261273b565b602082019050919050565b5f6020820190508181035f83015261279c81612763565b9050919050565b5f815190506127b181611eb0565b92915050565b5f602082840312156127cc576127cb611ce2565b5b5f6127d9848285016127a3565b91505092915050565b5f6127ec82611d6f565b91506127f783611d6f565b925082820390508181111561280f5761280e6125e4565b5b92915050565b5f6040820190506128285f8301856120c8565b6128356020830184611d78565b9392505050565b61284581611d87565b811461284f575f5ffd5b50565b5f815190506128608161283c565b92915050565b5f6020828403121561287b5761287a611ce2565b5b5f61288884828501612852565b91505092915050565b7f5472616e73666572206661696c656400000000000000000000000000000000005f82015250565b5f6128c5600f83611f44565b91506128d082612891565b602082019050919050565b5f6020820190508181035f8301526128f2816128b9565b9050919050565b5f60408201905061290c5f830186611d78565b818103602083015261291f81848661245e565b9050949350505050565b5f61293382611d6f565b915061293e83611d6f565b925082820261294c81611d6f565b91508282048414831517612963576129626125e4565b5b5092915050565b7f4e487b71000000000000000000000000000000000000000000000000000000005f52601260045260245ffd5b5f6129a182611d6f565b91506129ac83611d6f565b9250826129bc576129bb61296a565b5b828204905092915050565b7f54696d65206c6f636b206e6f74206578706972656400000000000000000000005f82015250565b5f6129fb601583611f44565b9150612a06826129c7565b602082019050919050565b5f6020820190508181035f830152612a28816129ef565b9050919050565b7f416d6f756e742062656c6f77206d696e696d756d206465706f736974000000005f82015250565b5f612a63601c83611f44565b9150612a6e82612a2f565b602082019050919050565b5f6020820190508181035f830152612a9081612a57565b9050919050565b5f606082019050612aaa5f8301866120c8565b612ab760208301856120c8565b612ac46040830184611d78565b94935050505056fea2646970667358221220e297b136eca63a31ad9393a5091633f039867be244d0616315909c6f9918d23e64736f6c63430008210033","linkReferences":{}},"methodIdentifiers":{"MIN_DEPOSIT()":"e1e158a5","WITHDRAWAL_LOCK()":"a0f2ed07","agentERC8004Id(address)":"8bd34532","allowlistSpending(address,string)":"09d9be62","cancelWithdrawal()":"22611280","completeWithdrawal()":"e03ff7cb","delistSpending(address)":"46eefd03","deposit(uint256,uint256)":"e2bbb158","getAvailableYield(address)":"b2325876","getTreasuryInfo(address)":"4f1eb129","getWithdrawalInfo(address)":"208120a7","initiateWithdrawal(uint256)":"12edde5e","isWithdrawalReady(address)":"c32ffb50","owner()":"8da5cb5b","pendingWithdrawals(address)":"f3f43703","renounceOwnership()":"715018a6","serviceProviderNames(address)":"252c8927","spendYield(address,uint256,string)":"4bdc4b30","spendingAllowlist(address)":"a2bda5cb","totalPrincipal()":"4b1533b2","transferOwnership(address)":"f2fde38b","treasuries(address)":"0849b234","wstETH()":"4aa07e64"},"id":24}