{"abi":[{"type":"constructor","inputs":[{"name":"_wstETH","type":"address","internalType":"address"},{"name":"_swapRouter","type":"address","internalType":"address"},{"name":"_weth","type":"address","internalType":"address"}],"stateMutability":"nonpayable"},{"type":"function","name":"MIN_DEPOSIT","inputs":[],"outputs":[{"name":"","type":"uint256","internalType":"uint256"}],"stateMutability":"view"},{"type":"function","name":"WETH","inputs":[],"outputs":[{"name":"","type":"address","internalType":"address"}],"stateMutability":"view"},{"type":"function","name":"WITHDRAWAL_LOCK","inputs":[],"outputs":[{"name":"","type":"uint256","internalType":"uint256"}],"stateMutability":"view"},{"type":"function","name":"agentERC8004Id","inputs":[{"name":"","type":"address","internalType":"address"}],"outputs":[{"name":"","type":"uint256","internalType":"uint256"}],"stateMutability":"view"},{"type":"function","name":"allowlistSpending","inputs":[{"name":"recipient","type":"address","internalType":"address"},{"name":"serviceName","type":"string","internalType":"string"}],"outputs":[],"stateMutability":"nonpayable"},{"type":"function","name":"cancelWithdrawal","inputs":[],"outputs":[],"stateMutability":"nonpayable"},{"type":"function","name":"completeWithdrawal","inputs":[],"outputs":[],"stateMutability":"nonpayable"},{"type":"function","name":"delistSpending","inputs":[{"name":"recipient","type":"address","internalType":"address"}],"outputs":[],"stateMutability":"nonpayable"},{"type":"function","name":"deposit","inputs":[{"name":"amount","type":"uint256","internalType":"uint256"},{"name":"erc8004Id","type":"uint256","internalType":"uint256"}],"outputs":[],"stateMutability":"nonpayable"},{"type":"function","name":"getAccruedYield","inputs":[{"name":"agent","type":"address","internalType":"address"}],"outputs":[{"name":"","type":"uint256","internalType":"uint256"}],"stateMutability":"view"},{"type":"function","name":"getAvailableYield","inputs":[{"name":"agent","type":"address","internalType":"address"}],"outputs":[{"name":"","type":"uint256","internalType":"uint256"}],"stateMutability":"view"},{"type":"function","name":"getCurrentStEthPerToken","inputs":[],"outputs":[{"name":"","type":"uint256","internalType":"uint256"}],"stateMutability":"view"},{"type":"function","name":"getTotalYieldEarned","inputs":[{"name":"agent","type":"address","internalType":"address"}],"outputs":[{"name":"","type":"uint256","internalType":"uint256"}],"stateMutability":"view"},{"type":"function","name":"getTreasuryInfo","inputs":[{"name":"agent","type":"address","internalType":"address"}],"outputs":[{"name":"principal","type":"uint256","internalType":"uint256"},{"name":"availableYield","type":"uint256","internalType":"uint256"},{"name":"totalYieldEarned","type":"uint256","internalType":"uint256"},{"name":"totalYieldClaimed","type":"uint256","internalType":"uint256"},{"name":"totalYieldSpent","type":"uint256","internalType":"uint256"},{"name":"depositTime","type":"uint256","internalType":"uint256"},{"name":"currentStEthPerToken","type":"uint256","internalType":"uint256"},{"name":"depositStEthPerToken","type":"uint256","internalType":"uint256"},{"name":"exists","type":"bool","internalType":"bool"}],"stateMutability":"view"},{"type":"function","name":"getWithdrawalInfo","inputs":[{"name":"agent","type":"address","internalType":"address"}],"outputs":[{"name":"amount","type":"uint256","internalType":"uint256"},{"name":"unlockTime","type":"uint256","internalType":"uint256"},{"name":"ready","type":"bool","internalType":"bool"}],"stateMutability":"view"},{"type":"function","name":"getYieldStats","inputs":[{"name":"agent","type":"address","internalType":"address"}],"outputs":[{"name":"principalWstETH","type":"uint256","internalType":"uint256"},{"name":"principalStETH","type":"uint256","internalType":"uint256"},{"name":"currentStETHValue","type":"uint256","internalType":"uint256"},{"name":"yieldEarnedStETH","type":"uint256","internalType":"uint256"},{"name":"apr","type":"uint256","internalType":"uint256"}],"stateMutability":"view"},{"type":"function","name":"initiateWithdrawal","inputs":[{"name":"amount","type":"uint256","internalType":"uint256"}],"outputs":[],"stateMutability":"nonpayable"},{"type":"function","name":"isWithdrawalReady","inputs":[{"name":"agent","type":"address","internalType":"address"}],"outputs":[{"name":"","type":"bool","internalType":"bool"}],"stateMutability":"view"},{"type":"function","name":"owner","inputs":[],"outputs":[{"name":"","type":"address","internalType":"address"}],"stateMutability":"view"},{"type":"function","name":"pendingWithdrawals","inputs":[{"name":"","type":"address","internalType":"address"}],"outputs":[{"name":"amount","type":"uint256","internalType":"uint256"},{"name":"unlockTime","type":"uint256","internalType":"uint256"},{"name":"exists","type":"bool","internalType":"bool"}],"stateMutability":"view"},{"type":"function","name":"renounceOwnership","inputs":[],"outputs":[],"stateMutability":"nonpayable"},{"type":"function","name":"serviceProviderNames","inputs":[{"name":"","type":"address","internalType":"address"}],"outputs":[{"name":"","type":"string","internalType":"string"}],"stateMutability":"view"},{"type":"function","name":"spendYield","inputs":[{"name":"recipient","type":"address","internalType":"address"},{"name":"amount","type":"uint256","internalType":"uint256"},{"name":"purpose","type":"string","internalType":"string"}],"outputs":[],"stateMutability":"nonpayable"},{"type":"function","name":"spendingAllowlist","inputs":[{"name":"","type":"address","internalType":"address"}],"outputs":[{"name":"","type":"bool","internalType":"bool"}],"stateMutability":"view"},{"type":"function","name":"swapRouter","inputs":[],"outputs":[{"name":"","type":"address","internalType":"contract ISwapRouter"}],"stateMutability":"view"},{"type":"function","name":"swapYieldToETH","inputs":[{"name":"minEthOut","type":"uint256","internalType":"uint256"}],"outputs":[{"name":"ethAmount","type":"uint256","internalType":"uint256"}],"stateMutability":"nonpayable"},{"type":"function","name":"swapYieldToETHWithFee","inputs":[{"name":"minEthOut","type":"uint256","internalType":"uint256"},{"name":"feeTier","type":"uint24","internalType":"uint24"}],"outputs":[{"name":"ethAmount","type":"uint256","internalType":"uint256"}],"stateMutability":"nonpayable"},{"type":"function","name":"sweepYield","inputs":[],"outputs":[{"name":"","type":"uint256","internalType":"uint256"}],"stateMutability":"nonpayable"},{"type":"function","name":"totalPrincipal","inputs":[],"outputs":[{"name":"","type":"uint256","internalType":"uint256"}],"stateMutability":"view"},{"type":"function","name":"transferOwnership","inputs":[{"name":"newOwner","type":"address","internalType":"address"}],"outputs":[],"stateMutability":"nonpayable"},{"type":"function","name":"treasuries","inputs":[{"name":"","type":"address","internalType":"address"}],"outputs":[{"name":"principalShares","type":"uint256","internalType":"uint256"},{"name":"depositStEthPerToken","type":"uint256","internalType":"uint256"},{"name":"lastStEthPerToken","type":"uint256","internalType":"uint256"},{"name":"totalYieldClaimed","type":"uint256","internalType":"uint256"},{"name":"totalYieldSpent","type":"uint256","internalType":"uint256"},{"name":"depositTimestamp","type":"uint256","internalType":"uint256"},{"name":"exists","type":"bool","internalType":"bool"}],"stateMutability":"view"},{"type":"function","name":"wstETH","inputs":[],"outputs":[{"name":"","type":"address","internalType":"contract IWstETH"}],"stateMutability":"view"},{"type":"event","name":"AgentRegistered","inputs":[{"name":"agent","type":"address","indexed":true,"internalType":"address"},{"name":"erc8004Id","type":"uint256","indexed":false,"internalType":"uint256"}],"anonymous":false},{"type":"event","name":"Deposited","inputs":[{"name":"agent","type":"address","indexed":true,"internalType":"address"},{"name":"wstETHAmount","type":"uint256","indexed":false,"internalType":"uint256"},{"name":"stEthPerToken","type":"uint256","indexed":false,"internalType":"uint256"}],"anonymous":false},{"type":"event","name":"OwnershipTransferred","inputs":[{"name":"previousOwner","type":"address","indexed":true,"internalType":"address"},{"name":"newOwner","type":"address","indexed":true,"internalType":"address"}],"anonymous":false},{"type":"event","name":"PrincipalWithdrawn","inputs":[{"name":"agent","type":"address","indexed":true,"internalType":"address"},{"name":"amount","type":"uint256","indexed":false,"internalType":"uint256"}],"anonymous":false},{"type":"event","name":"SpendingAllowlisted","inputs":[{"name":"recipient","type":"address","indexed":true,"internalType":"address"},{"name":"service","type":"string","indexed":false,"internalType":"string"}],"anonymous":false},{"type":"event","name":"SpendingDelisted","inputs":[{"name":"recipient","type":"address","indexed":true,"internalType":"address"}],"anonymous":false},{"type":"event","name":"WithdrawalCancelled","inputs":[{"name":"agent","type":"address","indexed":true,"internalType":"address"}],"anonymous":false},{"type":"event","name":"WithdrawalInitiated","inputs":[{"name":"agent","type":"address","indexed":true,"internalType":"address"},{"name":"amount","type":"uint256","indexed":false,"internalType":"uint256"},{"name":"unlockTime","type":"uint256","indexed":false,"internalType":"uint256"}],"anonymous":false},{"type":"event","name":"YieldCheckpoint","inputs":[{"name":"agent","type":"address","indexed":true,"internalType":"address"},{"name":"stEthPerToken","type":"uint256","indexed":false,"internalType":"uint256"},{"name":"accruedYield","type":"uint256","indexed":false,"internalType":"uint256"}],"anonymous":false},{"type":"event","name":"YieldClaimed","inputs":[{"name":"agent","type":"address","indexed":true,"internalType":"address"},{"name":"amount","type":"uint256","indexed":false,"internalType":"uint256"}],"anonymous":false},{"type":"event","name":"YieldSpent","inputs":[{"name":"agent","type":"address","indexed":true,"internalType":"address"},{"name":"recipient","type":"address","indexed":true,"internalType":"address"},{"name":"amount","type":"uint256","indexed":false,"internalType":"uint256"},{"name":"purpose","type":"string","indexed":false,"internalType":"string"}],"anonymous":false},{"type":"event","name":"YieldSwappedToETH","inputs":[{"name":"agent","type":"address","indexed":true,"internalType":"address"},{"name":"wstETHAmount","type":"uint256","indexed":false,"internalType":"uint256"},{"name":"ethAmount","type":"uint256","indexed":false,"internalType":"uint256"}],"anonymous":false},{"type":"error","name":"OwnableInvalidOwner","inputs":[{"name":"owner","type":"address","internalType":"address"}]},{"type":"error","name":"OwnableUnauthorizedAccount","inputs":[{"name":"account","type":"address","internalType":"address"}]},{"type":"error","name":"ReentrancyGuardReentrantCall","inputs":[]}],"bytecode":{"object":"0x60e060405234801561000f575f5ffd5b506040516143ee3803806143ee83398181016040528101906100319190610415565b335f73ffffffffffffffffffffffffffffffffffffffff168173ffffffffffffffffffffffffffffffffffffffff16036100a2575f6040517f1e4fbdf70000000000000000000000000000000000000000000000000000000081526004016100999190610474565b60405180910390fd5b6100b1816102c460201b60201c565b5060016100d06100c561038560201b60201c565b6103ae60201b60201c565b5f01819055505f73ffffffffffffffffffffffffffffffffffffffff168373ffffffffffffffffffffffffffffffffffffffff1603610144576040517f08c379a000000000000000000000000000000000000000000000000000000000815260040161013b906104e7565b60405180910390fd5b5f73ffffffffffffffffffffffffffffffffffffffff168273ffffffffffffffffffffffffffffffffffffffff16036101b2576040517f08c379a00000000000000000000000000000000000000000000000000000000081526004016101a99061054f565b60405180910390fd5b5f73ffffffffffffffffffffffffffffffffffffffff168173ffffffffffffffffffffffffffffffffffffffff1603610220576040517f08c379a0000000000000000000000000000000000000000000000000000000008152600401610217906105b7565b60405180910390fd5b8273ffffffffffffffffffffffffffffffffffffffff1660808173ffffffffffffffffffffffffffffffffffffffff16815250508173ffffffffffffffffffffffffffffffffffffffff1660a08173ffffffffffffffffffffffffffffffffffffffff16815250508073ffffffffffffffffffffffffffffffffffffffff1660c08173ffffffffffffffffffffffffffffffffffffffff16815250505050506105d5565b5f5f5f9054906101000a900473ffffffffffffffffffffffffffffffffffffffff169050815f5f6101000a81548173ffffffffffffffffffffffffffffffffffffffff021916908373ffffffffffffffffffffffffffffffffffffffff1602179055508173ffffffffffffffffffffffffffffffffffffffff168173ffffffffffffffffffffffffffffffffffffffff167f8be0079c531659141344cd1fd0a4f28419497f9722a3daafe3b4186f6b6457e060405160405180910390a35050565b5f7f9b779b17422d0df92223018b32b4d1fa46e071723d6817e2486d003becc55f005f1b905090565b5f819050919050565b5f5ffd5b5f73ffffffffffffffffffffffffffffffffffffffff82169050919050565b5f6103e4826103bb565b9050919050565b6103f4816103da565b81146103fe575f5ffd5b50565b5f8151905061040f816103eb565b92915050565b5f5f5f6060848603121561042c5761042b6103b7565b5b5f61043986828701610401565b935050602061044a86828701610401565b925050604061045b86828701610401565b9150509250925092565b61046e816103da565b82525050565b5f6020820190506104875f830184610465565b92915050565b5f82825260208201905092915050565b7f496e76616c6964207773744554482061646472657373000000000000000000005f82015250565b5f6104d160168361048d565b91506104dc8261049d565b602082019050919050565b5f6020820190508181035f8301526104fe816104c5565b9050919050565b7f496e76616c6964207377617020726f75746572000000000000000000000000005f82015250565b5f61053960138361048d565b915061054482610505565b602082019050919050565b5f6020820190508181035f8301526105668161052d565b9050919050565b7f496e76616c6964205745544800000000000000000000000000000000000000005f82015250565b5f6105a1600c8361048d565b91506105ac8261056d565b602082019050919050565b5f6020820190508181035f8301526105ce81610595565b9050919050565b60805160a05160c051613d7f61066f5f395f81816108c0015281816115d50152611e7201525f81816107f7015281816109510152818161150c015281816116680152611fb701525f81816107bb0152818161088401528181610cd3015281816114d00152818161159901528181611805015281816119f601528181611f25015281816123df01528181612571015261264e0152613d7f5ff3fe608060405234801561000f575f5ffd5b50600436106101ee575f3560e01c80638bd345321161010d578063c31c9c07116100a0578063e1e158a51161006f578063e1e158a5146105f4578063e2bbb15814610612578063f2fde38b1461062e578063f3f437031461064a576101ee565b8063c31c9c0714610568578063c32ffb5014610586578063d7f91f31146105b6578063e03ff7cb146105ea576101ee565b8063a2bda5cb116100dc578063a2bda5cb146104cc578063ad5c4648146104fc578063b23258761461051a578063c30a996b1461054a576101ee565b80638bd34532146104305780638da5cb5b146104605780639fbadaf81461047e578063a0f2ed07146104ae576101ee565b806332fa59f7116101855780634bdc4b30116101545780634bdc4b30146103a25780634f1eb129146103be578063715018a6146103f657806378b89d9014610400576101ee565b806332fa59f71461031a57806346eefd031461034a5780634aa07e64146103665780634b1533b214610384576101ee565b806312edde5e116101c157806312edde5e14610292578063208120a7146102ae57806322611280146102e0578063252c8927146102ea576101ee565b8063076a4d4b146101f25780630849b2341461022257806309d9be62146102585780630fa5580514610274575b5f5ffd5b61020c60048036038101906102079190612c65565b61067c565b6040516102199190612cb2565b60405180910390f35b61023c60048036038101906102379190612d25565b610a4b565b60405161024f9796959493929190612d6a565b60405180910390f35b610272600480360381019061026d9190612e38565b610a95565b005b61027c610b94565b6040516102899190612cb2565b60405180910390f35b6102ac60048036038101906102a79190612e95565b610e09565b005b6102c860048036038101906102c39190612d25565b6110ae565b6040516102d793929190612ec0565b60405180910390f35b6102e8611129565b005b61030460048036038101906102ff9190612d25565b6112f6565b6040516103119190612f65565b60405180910390f35b610334600480360381019061032f9190612e95565b611391565b6040516103419190612cb2565b60405180910390f35b610364600480360381019061035f9190612d25565b611761565b005b61036e611803565b60405161037b9190612fe0565b60405180910390f35b61038c611827565b6040516103999190612cb2565b60405180910390f35b6103bc60048036038101906103b79190612ff9565b61182d565b005b6103d860048036038101906103d39190612d25565b611b48565b6040516103ed9998979695949392919061306a565b60405180910390f35b6103fe611c63565b005b61041a60048036038101906104159190612d25565b611c76565b6040516104279190612cb2565b60405180910390f35b61044a60048036038101906104459190612d25565b611d43565b6040516104579190612cb2565b60405180910390f35b610468611d58565b6040516104759190613104565b60405180910390f35b61049860048036038101906104939190612d25565b611d7f565b6040516104a59190612cb2565b60405180910390f35b6104b6611e4c565b6040516104c39190612cb2565b60405180910390f35b6104e660048036038101906104e19190612d25565b611e53565b6040516104f3919061311d565b60405180910390f35b610504611e70565b6040516105119190613104565b60405180910390f35b610534600480360381019061052f9190612d25565b611e94565b6040516105419190612cb2565b60405180910390f35b610552611f22565b60405161055f9190612cb2565b60405180910390f35b610570611fb5565b60405161057d9190613156565b60405180910390f35b6105a0600480360381019061059b9190612d25565b611fd9565b6040516105ad919061311d565b60405180910390f35b6105d060048036038101906105cb9190612d25565b612043565b6040516105e195949392919061316f565b60405180910390f35b6105f261219a565b005b6105fc612512565b6040516106099190612cb2565b60405180910390f35b61062c600480360381019061062791906131c0565b61251d565b005b61064860048036038101906106439190612d25565b6128a7565b005b610664600480360381019061065f9190612d25565b61292b565b60405161067393929190612ec0565b60405180910390f35b5f61068561295d565b60015f3373ffffffffffffffffffffffffffffffffffffffff1673ffffffffffffffffffffffffffffffffffffffff1681526020019081526020015f206006015f9054906101000a900460ff16610711576040517f08c379a000000000000000000000000000000000000000000000000000000000815260040161070890613248565b60405180910390fd5b5f60015f3373ffffffffffffffffffffffffffffffffffffffff1673ffffffffffffffffffffffffffffffffffffffff1681526020019081526020015f2090505f61075b8261297f565b90505f811161079f576040517f08c379a0000000000000000000000000000000000000000000000000000000008152600401610796906132b0565b60405180910390fd5b80826003015f8282546107b291906132fb565b925050819055507f000000000000000000000000000000000000000000000000000000000000000073ffffffffffffffffffffffffffffffffffffffff1663095ea7b37f0000000000000000000000000000000000000000000000000000000000000000836040518363ffffffff1660e01b815260040161083492919061332e565b6020604051808303815f875af1158015610850573d5f5f3e3d5ffd5b505050506040513d601f19601f82011682018060405250810190610874919061337f565b505f6040518061010001604052807f000000000000000000000000000000000000000000000000000000000000000073ffffffffffffffffffffffffffffffffffffffff1681526020017f000000000000000000000000000000000000000000000000000000000000000073ffffffffffffffffffffffffffffffffffffffff1681526020018662ffffff1681526020013373ffffffffffffffffffffffffffffffffffffffff1681526020014281526020018381526020018781526020015f73ffffffffffffffffffffffffffffffffffffffff1681525090507f000000000000000000000000000000000000000000000000000000000000000073ffffffffffffffffffffffffffffffffffffffff1663414bf389826040518263ffffffff1660e01b81526004016109a89190613486565b6020604051808303815f875af11580156109c4573d5f5f3e3d5ffd5b505050506040513d601f19601f820116820180604052508101906109e891906134b4565b93503373ffffffffffffffffffffffffffffffffffffffff167f6b1429e2b7eecc2e059aeaf2a2e26fa489d920152807d1279729cfd9e10f51728386604051610a329291906134df565b60405180910390a2505050610a456129fa565b92915050565b6001602052805f5260405f205f91509050805f015490806001015490806002015490806003015490806004015490806005015490806006015f9054906101000a900460ff16905087565b610a9d612a14565b600160035f8573ffffffffffffffffffffffffffffffffffffffff1673ffffffffffffffffffffffffffffffffffffffff1681526020019081526020015f205f6101000a81548160ff021916908315150217905550818160045f8673ffffffffffffffffffffffffffffffffffffffff1673ffffffffffffffffffffffffffffffffffffffff1681526020019081526020015f209182610b3e929190613742565b508273ffffffffffffffffffffffffffffffffffffffff167f6656f0611d1347185270943bb9b4958736802177c4450b1739c335375158098e8383604051610b87929190613849565b60405180910390a2505050565b5f610b9d61295d565b60015f3373ffffffffffffffffffffffffffffffffffffffff1673ffffffffffffffffffffffffffffffffffffffff1681526020019081526020015f206006015f9054906101000a900460ff16610c29576040517f08c379a0000000000000000000000000000000000000000000000000000000008152600401610c2090613248565b60405180910390fd5b5f60015f3373ffffffffffffffffffffffffffffffffffffffff1673ffffffffffffffffffffffffffffffffffffffff1681526020019081526020015f2090505f610c738261297f565b90505f8111610cb7576040517f08c379a0000000000000000000000000000000000000000000000000000000008152600401610cae906138b5565b60405180910390fd5b80826003015f828254610cca91906132fb565b925050819055507f000000000000000000000000000000000000000000000000000000000000000073ffffffffffffffffffffffffffffffffffffffff1663a9059cbb33836040518363ffffffff1660e01b8152600401610d2c92919061332e565b6020604051808303815f875af1158015610d48573d5f5f3e3d5ffd5b505050506040513d601f19601f82011682018060405250810190610d6c919061337f565b610dab576040517f08c379a0000000000000000000000000000000000000000000000000000000008152600401610da29061391d565b60405180910390fd5b3373ffffffffffffffffffffffffffffffffffffffff167fc04825ba3f383b602255d2a13065a68e325c65c9e0ed5d031ea2b06f641873af82604051610df19190612cb2565b60405180910390a28092505050610e066129fa565b90565b610e1161295d565b60015f3373ffffffffffffffffffffffffffffffffffffffff1673ffffffffffffffffffffffffffffffffffffffff1681526020019081526020015f206006015f9054906101000a900460ff16610e9d576040517f08c379a0000000000000000000000000000000000000000000000000000000008152600401610e9490613248565b60405180910390fd5b5f60015f3373ffffffffffffffffffffffffffffffffffffffff1673ffffffffffffffffffffffffffffffffffffffff1681526020019081526020015f20905081815f01541015610f23576040517f08c379a0000000000000000000000000000000000000000000000000000000008152600401610f1a90613985565b60405180910390fd5b60025f3373ffffffffffffffffffffffffffffffffffffffff1673ffffffffffffffffffffffffffffffffffffffff1681526020019081526020015f206002015f9054906101000a900460ff1615610fb0576040517f08c379a0000000000000000000000000000000000000000000000000000000008152600401610fa7906139ed565b60405180910390fd5b5f62093a8042610fc091906132fb565b905060405180606001604052808481526020018281526020016001151581525060025f3373ffffffffffffffffffffffffffffffffffffffff1673ffffffffffffffffffffffffffffffffffffffff1681526020019081526020015f205f820151815f0155602082015181600101556040820151816002015f6101000a81548160ff0219169083151502179055509050503373ffffffffffffffffffffffffffffffffffffffff167f31f69201fab7912e3ec9850e3ab705964bf46d9d4276bdcbb6d05e965e5f540184836040516110999291906134df565b60405180910390a250506110ab6129fa565b50565b5f5f5f5f60025f8673ffffffffffffffffffffffffffffffffffffffff1673ffffffffffffffffffffffffffffffffffffffff1681526020019081526020015f209050805f01548160010154826002015f9054906101000a900460ff16801561111b575082600101544210155b935093509350509193909250565b61113161295d565b60015f3373ffffffffffffffffffffffffffffffffffffffff1673ffffffffffffffffffffffffffffffffffffffff1681526020019081526020015f206006015f9054906101000a900460ff166111bd576040517f08c379a00000000000000000000000000000000000000000000000000000000081526004016111b490613248565b60405180910390fd5b60025f3373ffffffffffffffffffffffffffffffffffffffff1673ffffffffffffffffffffffffffffffffffffffff1681526020019081526020015f206002015f9054906101000a900460ff16611249576040517f08c379a000000000000000000000000000000000000000000000000000000000815260040161124090613a55565b60405180910390fd5b3373ffffffffffffffffffffffffffffffffffffffff167fc51fdb96728de385ec7859819e3997bc618362ef0dbca0ad051d856866cda3db60405160405180910390a260025f3373ffffffffffffffffffffffffffffffffffffffff1673ffffffffffffffffffffffffffffffffffffffff1681526020019081526020015f205f5f82015f9055600182015f9055600282015f6101000a81549060ff021916905550506112f46129fa565b565b6004602052805f5260405f205f9150905080546113129061356a565b80601f016020809104026020016040519081016040528092919081815260200182805461133e9061356a565b80156113895780601f1061136057610100808354040283529160200191611389565b820191905f5260205f20905b81548152906001019060200180831161136c57829003601f168201915b505050505081565b5f61139a61295d565b60015f3373ffffffffffffffffffffffffffffffffffffffff1673ffffffffffffffffffffffffffffffffffffffff1681526020019081526020015f206006015f9054906101000a900460ff16611426576040517f08c379a000000000000000000000000000000000000000000000000000000000815260040161141d90613248565b60405180910390fd5b5f60015f3373ffffffffffffffffffffffffffffffffffffffff1673ffffffffffffffffffffffffffffffffffffffff1681526020019081526020015f2090505f6114708261297f565b90505f81116114b4576040517f08c379a00000000000000000000000000000000000000000000000000000000081526004016114ab906132b0565b60405180910390fd5b80826003015f8282546114c791906132fb565b925050819055507f000000000000000000000000000000000000000000000000000000000000000073ffffffffffffffffffffffffffffffffffffffff1663095ea7b37f0000000000000000000000000000000000000000000000000000000000000000836040518363ffffffff1660e01b815260040161154992919061332e565b6020604051808303815f875af1158015611565573d5f5f3e3d5ffd5b505050506040513d601f19601f82011682018060405250810190611589919061337f565b505f6040518061010001604052807f000000000000000000000000000000000000000000000000000000000000000073ffffffffffffffffffffffffffffffffffffffff1681526020017f000000000000000000000000000000000000000000000000000000000000000073ffffffffffffffffffffffffffffffffffffffff168152602001610bb862ffffff1681526020013373ffffffffffffffffffffffffffffffffffffffff1681526020014281526020018381526020018681526020015f73ffffffffffffffffffffffffffffffffffffffff1681525090507f000000000000000000000000000000000000000000000000000000000000000073ffffffffffffffffffffffffffffffffffffffff1663414bf389826040518263ffffffff1660e01b81526004016116bf9190613486565b6020604051808303815f875af11580156116db573d5f5f3e3d5ffd5b505050506040513d601f19601f820116820180604052508101906116ff91906134b4565b93503373ffffffffffffffffffffffffffffffffffffffff167f6b1429e2b7eecc2e059aeaf2a2e26fa489d920152807d1279729cfd9e10f517283866040516117499291906134df565b60405180910390a250505061175c6129fa565b919050565b611769612a14565b5f60035f8373ffffffffffffffffffffffffffffffffffffffff1673ffffffffffffffffffffffffffffffffffffffff1681526020019081526020015f205f6101000a81548160ff0219169083151502179055508073ffffffffffffffffffffffffffffffffffffffff167fb15687505ad72b9fc8d24fa0a887e668f29301ded30f839a7ad250fad878806060405160405180910390a250565b7f000000000000000000000000000000000000000000000000000000000000000081565b60065481565b61183561295d565b60015f3373ffffffffffffffffffffffffffffffffffffffff1673ffffffffffffffffffffffffffffffffffffffff1681526020019081526020015f206006015f9054906101000a900460ff166118c1576040517f08c379a00000000000000000000000000000000000000000000000000000000081526004016118b890613248565b60405180910390fd5b8360035f8273ffffffffffffffffffffffffffffffffffffffff1673ffffffffffffffffffffffffffffffffffffffff1681526020019081526020015f205f9054906101000a900460ff1661194b576040517f08c379a000000000000000000000000000000000000000000000000000000000815260040161194290613abd565b60405180910390fd5b5f60015f3373ffffffffffffffffffffffffffffffffffffffff1673ffffffffffffffffffffffffffffffffffffffff1681526020019081526020015f2090505f6119958261297f565b9050858110156119da576040517f08c379a00000000000000000000000000000000000000000000000000000000081526004016119d190613b25565b60405180910390fd5b85826004015f8282546119ed91906132fb565b925050819055507f000000000000000000000000000000000000000000000000000000000000000073ffffffffffffffffffffffffffffffffffffffff1663a9059cbb88886040518363ffffffff1660e01b8152600401611a4f92919061332e565b6020604051808303815f875af1158015611a6b573d5f5f3e3d5ffd5b505050506040513d601f19601f82011682018060405250810190611a8f919061337f565b611ace576040517f08c379a0000000000000000000000000000000000000000000000000000000008152600401611ac59061391d565b60405180910390fd5b8673ffffffffffffffffffffffffffffffffffffffff163373ffffffffffffffffffffffffffffffffffffffff167f1235a435611b972175c29482589e977b7d315a9c2335de62aa5412c5bb8f1678888888604051611b2f93929190613b43565b60405180910390a3505050611b426129fa565b50505050565b5f5f5f5f5f5f5f5f5f5f60015f8c73ffffffffffffffffffffffffffffffffffffffff1673ffffffffffffffffffffffffffffffffffffffff1681526020019081526020015f209050805f0154611b9e8c611e94565b3073ffffffffffffffffffffffffffffffffffffffff16639fbadaf88e6040518263ffffffff1660e01b8152600401611bd79190613104565b602060405180830381865afa158015611bf2573d5f5f3e3d5ffd5b505050506040513d601f19601f82011682018060405250810190611c1691906134b4565b836003015484600401548560050154611c2d611f22565b8760010154886006015f9054906101000a900460ff16995099509950995099509950995099509950509193959799909294969850565b611c6b612a14565b611c745f612a9b565b565b5f5f60015f8473ffffffffffffffffffffffffffffffffffffffff1673ffffffffffffffffffffffffffffffffffffffff1681526020019081526020015f209050806006015f9054906101000a900460ff161580611cd657505f815f0154145b15611ce4575f915050611d3e565b5f611ced611f22565b90505f82600201549050808211611d09575f9350505050611d3e565b5f8183611d169190613b73565b90505f8282865f0154611d299190613ba6565b611d339190613c14565b905080955050505050505b919050565b6005602052805f5260405f205f915090505481565b5f5f5f9054906101000a900473ffffffffffffffffffffffffffffffffffffffff16905090565b5f5f60015f8473ffffffffffffffffffffffffffffffffffffffff1673ffffffffffffffffffffffffffffffffffffffff1681526020019081526020015f209050806006015f9054906101000a900460ff161580611ddf57505f815f0154145b15611ded575f915050611e47565b5f611df6611f22565b90505f82600101549050808211611e12575f9350505050611e47565b5f8183611e1f9190613b73565b90505f8282865f0154611e329190613ba6565b611e3c9190613c14565b905080955050505050505b919050565b62093a8081565b6003602052805f5260405f205f915054906101000a900460ff1681565b7f000000000000000000000000000000000000000000000000000000000000000081565b5f5f611e9f83611c76565b90505f60015f8573ffffffffffffffffffffffffffffffffffffffff1673ffffffffffffffffffffffffffffffffffffffff1681526020019081526020015f2090505f81600401548260030154611ef691906132fb565b905080831115611f16578083611f0c9190613b73565b9350505050611f1d565b5f93505050505b919050565b5f7f000000000000000000000000000000000000000000000000000000000000000073ffffffffffffffffffffffffffffffffffffffff1663035faf826040518163ffffffff1660e01b8152600401602060405180830381865afa158015611f8c573d5f5f3e3d5ffd5b505050506040513d601f19601f82011682018060405250810190611fb091906134b4565b905090565b7f000000000000000000000000000000000000000000000000000000000000000081565b5f5f60025f8473ffffffffffffffffffffffffffffffffffffffff1673ffffffffffffffffffffffffffffffffffffffff1681526020019081526020015f209050806002015f9054906101000a900460ff16801561203b575080600101544210155b915050919050565b5f5f5f5f5f5f60015f8873ffffffffffffffffffffffffffffffffffffffff1673ffffffffffffffffffffffffffffffffffffffff1681526020019081526020015f209050806006015f9054906101000a900460ff166120b2575f5f5f5f5f9550955095509550955050612191565b805f015495505f6120c1611f22565b9050670de0b6b3a764000081886120d89190613ba6565b6120e29190613c14565b9450670de0b6b3a76400008260010154886120fd9190613ba6565b6121079190613c14565b9550858511612116575f612123565b85856121229190613b73565b5b93505f826005015411801561213757505f86115b1561218e575f82600501544261214d9190613b73565b90505f81111561218c5780876121639190613ba6565b60646301e13380876121759190613ba6565b61217f9190613ba6565b6121899190613c14565b93505b505b50505b91939590929450565b6121a261295d565b60015f3373ffffffffffffffffffffffffffffffffffffffff1673ffffffffffffffffffffffffffffffffffffffff1681526020019081526020015f206006015f9054906101000a900460ff1661222e576040517f08c379a000000000000000000000000000000000000000000000000000000000815260040161222590613248565b60405180910390fd5b5f60025f3373ffffffffffffffffffffffffffffffffffffffff1673ffffffffffffffffffffffffffffffffffffffff1681526020019081526020015f209050806002015f9054906101000a900460ff166122be576040517f08c379a00000000000000000000000000000000000000000000000000000000081526004016122b590613a55565b60405180910390fd5b8060010154421015612305576040517f08c379a00000000000000000000000000000000000000000000000000000000081526004016122fc90613c8e565b60405180910390fd5b5f60015f3373ffffffffffffffffffffffffffffffffffffffff1673ffffffffffffffffffffffffffffffffffffffff1681526020019081526020015f2090505f825f0154905080825f015f82825461235e9190613b73565b925050819055508060065f8282546123769190613b73565b9250508190555060025f3373ffffffffffffffffffffffffffffffffffffffff1673ffffffffffffffffffffffffffffffffffffffff1681526020019081526020015f205f5f82015f9055600182015f9055600282015f6101000a81549060ff021916905550507f000000000000000000000000000000000000000000000000000000000000000073ffffffffffffffffffffffffffffffffffffffff1663a9059cbb33836040518363ffffffff1660e01b815260040161243892919061332e565b6020604051808303815f875af1158015612454573d5f5f3e3d5ffd5b505050506040513d601f19601f82011682018060405250810190612478919061337f565b6124b7576040517f08c379a00000000000000000000000000000000000000000000000000000000081526004016124ae9061391d565b60405180910390fd5b3373ffffffffffffffffffffffffffffffffffffffff167f6a0d6da0beb3b4dc509c4559b55ca29b5f90af6d351a3f9365bb5ab6b572c960826040516124fd9190612cb2565b60405180910390a25050506125106129fa565b565b66038d7ea4c6800081565b61252561295d565b66038d7ea4c6800082101561256f576040517f08c379a000000000000000000000000000000000000000000000000000000000815260040161256690613cf6565b60405180910390fd5b7f000000000000000000000000000000000000000000000000000000000000000073ffffffffffffffffffffffffffffffffffffffff166323b872dd3330856040518463ffffffff1660e01b81526004016125cc93929190613d14565b6020604051808303815f875af11580156125e8573d5f5f3e3d5ffd5b505050506040513d601f19601f8201168201806040525081019061260c919061337f565b61264b576040517f08c379a00000000000000000000000000000000000000000000000000000000081526004016126429061391d565b60405180910390fd5b5f7f000000000000000000000000000000000000000000000000000000000000000073ffffffffffffffffffffffffffffffffffffffff1663035faf826040518163ffffffff1660e01b8152600401602060405180830381865afa1580156126b5573d5f5f3e3d5ffd5b505050506040513d601f19601f820116820180604052508101906126d991906134b4565b90505f60015f3373ffffffffffffffffffffffffffffffffffffffff1673ffffffffffffffffffffffffffffffffffffffff1681526020019081526020015f209050806006015f9054906101000a900460ff1661280d5783815f01819055508181600101819055508181600201819055506001816006015f6101000a81548160ff0219169083151502179055504281600501819055505f831115612808578260055f3373ffffffffffffffffffffffffffffffffffffffff1673ffffffffffffffffffffffffffffffffffffffff1681526020019081526020015f20819055503373ffffffffffffffffffffffffffffffffffffffff167fd1b844701695237443dd884ed7193d9c8788f3befd35adc0910472eb166f3306846040516127ff9190612cb2565b60405180910390a25b612831565b6128168161297f565b5083815f015f82825461282991906132fb565b925050819055505b8360065f82825461284291906132fb565b925050819055503373ffffffffffffffffffffffffffffffffffffffff167f73a19dd210f1a7f902193214c0ee91dd35ee5b4d920cba8d519eca65a7b488ca85846040516128919291906134df565b60405180910390a250506128a36129fa565b5050565b6128af612a14565b5f73ffffffffffffffffffffffffffffffffffffffff168173ffffffffffffffffffffffffffffffffffffffff160361291f575f6040517f1e4fbdf70000000000000000000000000000000000000000000000000000000081526004016129169190613104565b60405180910390fd5b61292881612a9b565b50565b6002602052805f5260405f205f91509050805f015490806001015490806002015f9054906101000a900460ff16905083565b612965612b5c565b6002612977612972612b9d565b612bc6565b5f0181905550565b5f5f612989611f22565b90505f61299533611c76565b90508184600201819055503373ffffffffffffffffffffffffffffffffffffffff167f2f494a1a61651ade6a999ac5b3ca9eeaf10cc269615d089be932ae20e74fb6ab83836040516129e89291906134df565b60405180910390a28092505050919050565b6001612a0c612a07612b9d565b612bc6565b5f0181905550565b612a1c612bcf565b73ffffffffffffffffffffffffffffffffffffffff16612a3a611d58565b73ffffffffffffffffffffffffffffffffffffffff1614612a9957612a5d612bcf565b6040517f118cdaa7000000000000000000000000000000000000000000000000000000008152600401612a909190613104565b60405180910390fd5b565b5f5f5f9054906101000a900473ffffffffffffffffffffffffffffffffffffffff169050815f5f6101000a81548173ffffffffffffffffffffffffffffffffffffffff021916908373ffffffffffffffffffffffffffffffffffffffff1602179055508173ffffffffffffffffffffffffffffffffffffffff168173ffffffffffffffffffffffffffffffffffffffff167f8be0079c531659141344cd1fd0a4f28419497f9722a3daafe3b4186f6b6457e060405160405180910390a35050565b612b64612bd6565b15612b9b576040517f3ee5aeb500000000000000000000000000000000000000000000000000000000815260040160405180910390fd5b565b5f7f9b779b17422d0df92223018b32b4d1fa46e071723d6817e2486d003becc55f005f1b905090565b5f819050919050565b5f33905090565b5f6002612be9612be4612b9d565b612bc6565b5f015414905090565b5f5ffd5b5f5ffd5b5f819050919050565b612c0c81612bfa565b8114612c16575f5ffd5b50565b5f81359050612c2781612c03565b92915050565b5f62ffffff82169050919050565b612c4481612c2d565b8114612c4e575f5ffd5b50565b5f81359050612c5f81612c3b565b92915050565b5f5f60408385031215612c7b57612c7a612bf2565b5b5f612c8885828601612c19565b9250506020612c9985828601612c51565b9150509250929050565b612cac81612bfa565b82525050565b5f602082019050612cc55f830184612ca3565b92915050565b5f73ffffffffffffffffffffffffffffffffffffffff82169050919050565b5f612cf482612ccb565b9050919050565b612d0481612cea565b8114612d0e575f5ffd5b50565b5f81359050612d1f81612cfb565b92915050565b5f60208284031215612d3a57612d39612bf2565b5b5f612d4784828501612d11565b91505092915050565b5f8115159050919050565b612d6481612d50565b82525050565b5f60e082019050612d7d5f83018a612ca3565b612d8a6020830189612ca3565b612d976040830188612ca3565b612da46060830187612ca3565b612db16080830186612ca3565b612dbe60a0830185612ca3565b612dcb60c0830184612d5b565b98975050505050505050565b5f5ffd5b5f5ffd5b5f5ffd5b5f5f83601f840112612df857612df7612dd7565b5b8235905067ffffffffffffffff811115612e1557612e14612ddb565b5b602083019150836001820283011115612e3157612e30612ddf565b5b9250929050565b5f5f5f60408486031215612e4f57612e4e612bf2565b5b5f612e5c86828701612d11565b935050602084013567ffffffffffffffff811115612e7d57612e7c612bf6565b5b612e8986828701612de3565b92509250509250925092565b5f60208284031215612eaa57612ea9612bf2565b5b5f612eb784828501612c19565b91505092915050565b5f606082019050612ed35f830186612ca3565b612ee06020830185612ca3565b612eed6040830184612d5b565b949350505050565b5f81519050919050565b5f82825260208201905092915050565b8281835e5f83830152505050565b5f601f19601f8301169050919050565b5f612f3782612ef5565b612f418185612eff565b9350612f51818560208601612f0f565b612f5a81612f1d565b840191505092915050565b5f6020820190508181035f830152612f7d8184612f2d565b905092915050565b5f819050919050565b5f612fa8612fa3612f9e84612ccb565b612f85565b612ccb565b9050919050565b5f612fb982612f8e565b9050919050565b5f612fca82612faf565b9050919050565b612fda81612fc0565b82525050565b5f602082019050612ff35f830184612fd1565b92915050565b5f5f5f5f6060858703121561301157613010612bf2565b5b5f61301e87828801612d11565b945050602061302f87828801612c19565b935050604085013567ffffffffffffffff8111156130505761304f612bf6565b5b61305c87828801612de3565b925092505092959194509250565b5f6101208201905061307e5f83018c612ca3565b61308b602083018b612ca3565b613098604083018a612ca3565b6130a56060830189612ca3565b6130b26080830188612ca3565b6130bf60a0830187612ca3565b6130cc60c0830186612ca3565b6130d960e0830185612ca3565b6130e7610100830184612d5b565b9a9950505050505050505050565b6130fe81612cea565b82525050565b5f6020820190506131175f8301846130f5565b92915050565b5f6020820190506131305f830184612d5b565b92915050565b5f61314082612faf565b9050919050565b61315081613136565b82525050565b5f6020820190506131695f830184613147565b92915050565b5f60a0820190506131825f830188612ca3565b61318f6020830187612ca3565b61319c6040830186612ca3565b6131a96060830185612ca3565b6131b66080830184612ca3565b9695505050505050565b5f5f604083850312156131d6576131d5612bf2565b5b5f6131e385828601612c19565b92505060206131f485828601612c19565b9150509250929050565b7f4e6f20747265617375727920666f756e640000000000000000000000000000005f82015250565b5f613232601183612eff565b915061323d826131fe565b602082019050919050565b5f6020820190508181035f83015261325f81613226565b9050919050565b7f4e6f207969656c6420746f2073776170000000000000000000000000000000005f82015250565b5f61329a601083612eff565b91506132a582613266565b602082019050919050565b5f6020820190508181035f8301526132c78161328e565b9050919050565b7f4e487b71000000000000000000000000000000000000000000000000000000005f52601160045260245ffd5b5f61330582612bfa565b915061331083612bfa565b9250828201905080821115613328576133276132ce565b5b92915050565b5f6040820190506133415f8301856130f5565b61334e6020830184612ca3565b9392505050565b61335e81612d50565b8114613368575f5ffd5b50565b5f8151905061337981613355565b92915050565b5f6020828403121561339457613393612bf2565b5b5f6133a18482850161336b565b91505092915050565b6133b381612cea565b82525050565b6133c281612c2d565b82525050565b6133d181612bfa565b82525050565b6133e081612ccb565b82525050565b61010082015f8201516133fb5f8501826133aa565b50602082015161340e60208501826133aa565b50604082015161342160408501826133b9565b50606082015161343460608501826133aa565b50608082015161344760808501826133c8565b5060a082015161345a60a08501826133c8565b5060c082015161346d60c08501826133c8565b5060e082015161348060e08501826133d7565b50505050565b5f6101008201905061349a5f8301846133e6565b92915050565b5f815190506134ae81612c03565b92915050565b5f602082840312156134c9576134c8612bf2565b5b5f6134d6848285016134a0565b91505092915050565b5f6040820190506134f25f830185612ca3565b6134ff6020830184612ca3565b9392505050565b5f82905092915050565b7f4e487b71000000000000000000000000000000000000000000000000000000005f52604160045260245ffd5b7f4e487b71000000000000000000000000000000000000000000000000000000005f52602260045260245ffd5b5f600282049050600182168061358157607f821691505b6020821081036135945761359361353d565b5b50919050565b5f819050815f5260205f209050919050565b5f6020601f8301049050919050565b5f82821b905092915050565b5f600883026135f67fffffffffffffffffffffffffffffffffffffffffffffffffffffffffffffffff826135bb565b61360086836135bb565b95508019841693508086168417925050509392505050565b5f61363261362d61362884612bfa565b612f85565b612bfa565b9050919050565b5f819050919050565b61364b83613618565b61365f61365782613639565b8484546135c7565b825550505050565b5f5f905090565b613676613667565b613681818484613642565b505050565b5f5b828110156136a75761369c5f82840161366e565b600181019050613688565b505050565b601f8211156136fa57828211156136f9576136c68161359a565b6136cf836135ac565b6136d8856135ac565b60208610156136e5575f90505b8083016136f482840382613686565b505050505b5b505050565b5f82821c905092915050565b5f61371a5f19846008026136ff565b1980831691505092915050565b5f613732838361370b565b9150826002028217905092915050565b61374c8383613506565b67ffffffffffffffff81111561376557613764613510565b5b61376f825461356a565b61377a8282856136ac565b5f601f8311600181146137a7575f8415613795578287013590505b61379f8582613727565b865550613806565b601f1984166137b58661359a565b5f5b828110156137dc578489013582556001820191506020850194506020810190506137b7565b868310156137f957848901356137f5601f89168261370b565b8355505b6001600288020188555050505b50505050505050565b828183375f83830152505050565b5f6138288385612eff565b935061383583858461380f565b61383e83612f1d565b840190509392505050565b5f6020820190508181035f83015261386281848661381d565b90509392505050565b7f4e6f207969656c6420746f20636c61696d0000000000000000000000000000005f82015250565b5f61389f601183612eff565b91506138aa8261386b565b602082019050919050565b5f6020820190508181035f8301526138cc81613893565b9050919050565b7f5472616e73666572206661696c656400000000000000000000000000000000005f82015250565b5f613907600f83612eff565b9150613912826138d3565b602082019050919050565b5f6020820190508181035f830152613934816138fb565b9050919050565b7f496e73756666696369656e74207072696e636970616c000000000000000000005f82015250565b5f61396f601683612eff565b915061397a8261393b565b602082019050919050565b5f6020820190508181035f83015261399c81613963565b9050919050565b7f5769746864726177616c20616c72656164792070656e64696e670000000000005f82015250565b5f6139d7601a83612eff565b91506139e2826139a3565b602082019050919050565b5f6020820190508181035f830152613a04816139cb565b9050919050565b7f4e6f2070656e64696e67207769746864726177616c00000000000000000000005f82015250565b5f613a3f601583612eff565b9150613a4a82613a0b565b602082019050919050565b5f6020820190508181035f830152613a6c81613a33565b9050919050565b7f526563697069656e74206e6f7420616c6c6f776c6973746564000000000000005f82015250565b5f613aa7601983612eff565b9150613ab282613a73565b602082019050919050565b5f6020820190508181035f830152613ad481613a9b565b9050919050565b7f496e73756666696369656e74207969656c6400000000000000000000000000005f82015250565b5f613b0f601283612eff565b9150613b1a82613adb565b602082019050919050565b5f6020820190508181035f830152613b3c81613b03565b9050919050565b5f604082019050613b565f830186612ca3565b8181036020830152613b6981848661381d565b9050949350505050565b5f613b7d82612bfa565b9150613b8883612bfa565b9250828203905081811115613ba057613b9f6132ce565b5b92915050565b5f613bb082612bfa565b9150613bbb83612bfa565b9250828202613bc981612bfa565b91508282048414831517613be057613bdf6132ce565b5b5092915050565b7f4e487b71000000000000000000000000000000000000000000000000000000005f52601260045260245ffd5b5f613c1e82612bfa565b9150613c2983612bfa565b925082613c3957613c38613be7565b5b828204905092915050565b7f54696d65206c6f636b206e6f74206578706972656400000000000000000000005f82015250565b5f613c78601583612eff565b9150613c8382613c44565b602082019050919050565b5f6020820190508181035f830152613ca581613c6c565b9050919050565b7f416d6f756e742062656c6f77206d696e696d756d206465706f736974000000005f82015250565b5f613ce0601c83612eff565b9150613ceb82613cac565b602082019050919050565b5f6020820190508181035f830152613d0d81613cd4565b9050919050565b5f606082019050613d275f8301866130f5565b613d3460208301856130f5565b613d416040830184612ca3565b94935050505056fea2646970667358221220349f7980a779f3774a160e78d88348ac48d3811eb123695e4254721fba9ad85464736f6c63430008210033","linkReferences":{}},"methodIdentifiers":{"MIN_DEPOSIT()":"e1e158a5","WETH()":"ad5c4648","WITHDRAWAL_LOCK()":"a0f2ed07","agentERC8004Id(address)":"8bd34532","allowlistSpending(address,string)":"09d9be62","cancelWithdrawal()":"22611280","completeWithdrawal()":"e03ff7cb","delistSpending(address)":"46eefd03","deposit(uint256,uint256)":"e2bbb158","getAccruedYield(address)":"78b89d90","getAvailableYield(address)":"b2325876","getCurrentStEthPerToken()":"c30a996b","getTotalYieldEarned(address)":"9fbadaf8","getTreasuryInfo(address)":"4f1eb129","getWithdrawalInfo(address)":"208120a7","getYieldStats(address)":"d7f91f31","initiateWithdrawal(uint256)":"12edde5e","isWithdrawalReady(address)":"c32ffb50","owner()":"8da5cb5b","pendingWithdrawals(address)":"f3f43703","renounceOwnership()":"715018a6","serviceProviderNames(address)":"252c8927","spendYield(address,uint256,string)":"4bdc4b30","spendingAllowlist(address)":"a2bda5cb","swapRouter()":"c31c9c07","swapYieldToETH(uint256)":"32fa59f7","swapYieldToETHWithFee(uint256,uint24)":"076a4d4b","sweepYield()":"0fa55805","totalPrincipal()":"4b1533b2","transferOwnership(address)":"f2fde38b","treasuries(address)":"0849b234","wstETH()":"4aa07e64"},"id":25}