{"abi":[{"type":"constructor","inputs":[{"name":"_wstETH","type":"address","internalType":"address"},{"name":"_stETH","type":"address","internalType":"address"}],"stateMutability":"nonpayable"},{"type":"function","name":"MIN_DEPOSIT","inputs":[],"outputs":[{"name":"","type":"uint256","internalType":"uint256"}],"stateMutability":"view"},{"type":"function","name":"WITHDRAWAL_LOCK","inputs":[],"outputs":[{"name":"","type":"uint256","internalType":"uint256"}],"stateMutability":"view"},{"type":"function","name":"agentERC8004Id","inputs":[{"name":"","type":"address","internalType":"address"}],"outputs":[{"name":"","type":"uint256","internalType":"uint256"}],"stateMutability":"view"},{"type":"function","name":"allowlistSpending","inputs":[{"name":"recipient","type":"address","internalType":"address"},{"name":"service","type":"string","internalType":"string"}],"outputs":[],"stateMutability":"nonpayable"},{"type":"function","name":"cancelWithdrawal","inputs":[],"outputs":[],"stateMutability":"nonpayable"},{"type":"function","name":"completeWithdrawal","inputs":[],"outputs":[],"stateMutability":"nonpayable"},{"type":"function","name":"delistSpending","inputs":[{"name":"recipient","type":"address","internalType":"address"}],"outputs":[],"stateMutability":"nonpayable"},{"type":"function","name":"deposit","inputs":[{"name":"amount","type":"uint256","internalType":"uint256"},{"name":"erc8004Id","type":"uint256","internalType":"uint256"}],"outputs":[],"stateMutability":"nonpayable"},{"type":"function","name":"getAvailableYield","inputs":[{"name":"agent","type":"address","internalType":"address"}],"outputs":[{"name":"","type":"uint256","internalType":"uint256"}],"stateMutability":"view"},{"type":"function","name":"getTreasuryInfo","inputs":[{"name":"agent","type":"address","internalType":"address"}],"outputs":[{"name":"principalShares","type":"uint256","internalType":"uint256"},{"name":"principalStETH","type":"uint256","internalType":"uint256"},{"name":"availableYield","type":"uint256","internalType":"uint256"},{"name":"totalYieldSpent","type":"uint256","internalType":"uint256"},{"name":"exists","type":"bool","internalType":"bool"}],"stateMutability":"view"},{"type":"function","name":"initiateWithdrawal","inputs":[{"name":"amount","type":"uint256","internalType":"uint256"}],"outputs":[],"stateMutability":"nonpayable"},{"type":"function","name":"isWithdrawalReady","inputs":[{"name":"agent","type":"address","internalType":"address"}],"outputs":[{"name":"","type":"bool","internalType":"bool"}],"stateMutability":"view"},{"type":"function","name":"owner","inputs":[],"outputs":[{"name":"","type":"address","internalType":"address"}],"stateMutability":"view"},{"type":"function","name":"pendingWithdrawals","inputs":[{"name":"","type":"address","internalType":"address"}],"outputs":[{"name":"amount","type":"uint256","internalType":"uint256"},{"name":"unlockTime","type":"uint256","internalType":"uint256"},{"name":"exists","type":"bool","internalType":"bool"}],"stateMutability":"view"},{"type":"function","name":"renounceOwnership","inputs":[],"outputs":[],"stateMutability":"nonpayable"},{"type":"function","name":"spendYield","inputs":[{"name":"recipient","type":"address","internalType":"address"},{"name":"amount","type":"uint256","internalType":"uint256"},{"name":"purpose","type":"string","internalType":"string"}],"outputs":[],"stateMutability":"nonpayable"},{"type":"function","name":"spendingAllowlist","inputs":[{"name":"","type":"address","internalType":"address"}],"outputs":[{"name":"","type":"bool","internalType":"bool"}],"stateMutability":"view"},{"type":"function","name":"stETH","inputs":[],"outputs":[{"name":"","type":"address","internalType":"contract IstETH"}],"stateMutability":"view"},{"type":"function","name":"totalPrincipal","inputs":[],"outputs":[{"name":"","type":"uint256","internalType":"uint256"}],"stateMutability":"view"},{"type":"function","name":"transferOwnership","inputs":[{"name":"newOwner","type":"address","internalType":"address"}],"outputs":[],"stateMutability":"nonpayable"},{"type":"function","name":"treasuries","inputs":[{"name":"","type":"address","internalType":"address"}],"outputs":[{"name":"principalShares","type":"uint256","internalType":"uint256"},{"name":"lastYieldAccrued","type":"uint256","internalType":"uint256"},{"name":"totalYieldSpent","type":"uint256","internalType":"uint256"},{"name":"depositTimestamp","type":"uint256","internalType":"uint256"},{"name":"exists","type":"bool","internalType":"bool"}],"stateMutability":"view"},{"type":"function","name":"wstETH","inputs":[],"outputs":[{"name":"","type":"address","internalType":"contract IWstETH"}],"stateMutability":"view"},{"type":"event","name":"AgentRegistered","inputs":[{"name":"agent","type":"address","indexed":true,"internalType":"address"},{"name":"erc8004Id","type":"uint256","indexed":false,"internalType":"uint256"}],"anonymous":false},{"type":"event","name":"Deposited","inputs":[{"name":"agent","type":"address","indexed":true,"internalType":"address"},{"name":"stETHAmount","type":"uint256","indexed":false,"internalType":"uint256"},{"name":"principalAmount","type":"uint256","indexed":false,"internalType":"uint256"}],"anonymous":false},{"type":"event","name":"OwnershipTransferred","inputs":[{"name":"previousOwner","type":"address","indexed":true,"internalType":"address"},{"name":"newOwner","type":"address","indexed":true,"internalType":"address"}],"anonymous":false},{"type":"event","name":"PrincipalWithdrawn","inputs":[{"name":"agent","type":"address","indexed":true,"internalType":"address"},{"name":"amount","type":"uint256","indexed":false,"internalType":"uint256"}],"anonymous":false},{"type":"event","name":"SpendingAllowlisted","inputs":[{"name":"recipient","type":"address","indexed":true,"internalType":"address"},{"name":"service","type":"string","indexed":false,"internalType":"string"}],"anonymous":false},{"type":"event","name":"SpendingDelisted","inputs":[{"name":"recipient","type":"address","indexed":true,"internalType":"address"}],"anonymous":false},{"type":"event","name":"WithdrawalInitiated","inputs":[{"name":"agent","type":"address","indexed":true,"internalType":"address"},{"name":"amount","type":"uint256","indexed":false,"internalType":"uint256"},{"name":"unlockTime","type":"uint256","indexed":false,"internalType":"uint256"}],"anonymous":false},{"type":"event","name":"YieldSpent","inputs":[{"name":"agent","type":"address","indexed":true,"internalType":"address"},{"name":"recipient","type":"address","indexed":true,"internalType":"address"},{"name":"amount","type":"uint256","indexed":false,"internalType":"uint256"},{"name":"purpose","type":"string","indexed":false,"internalType":"string"}],"anonymous":false},{"type":"error","name":"OwnableInvalidOwner","inputs":[{"name":"owner","type":"address","internalType":"address"}]},{"type":"error","name":"OwnableUnauthorizedAccount","inputs":[{"name":"account","type":"address","internalType":"address"}]},{"type":"error","name":"ReentrancyGuardReentrantCall","inputs":[]}],"bytecode":{"object":"0x60c060405234801561000f575f5ffd5b50604051612f12380380612f1283398181016040528101906100319190610296565b335f73ffffffffffffffffffffffffffffffffffffffff168173ffffffffffffffffffffffffffffffffffffffff16036100a2575f6040517f1e4fbdf700000000000000000000000000000000000000000000000000000000815260040161009991906102e3565b60405180910390fd5b6100b18161014560201b60201c565b5060016100d06100c561020660201b60201c565b61022f60201b60201c565b5f01819055508173ffffffffffffffffffffffffffffffffffffffff1660808173ffffffffffffffffffffffffffffffffffffffff16815250508073ffffffffffffffffffffffffffffffffffffffff1660a08173ffffffffffffffffffffffffffffffffffffffff168152505050506102fc565b5f5f5f9054906101000a900473ffffffffffffffffffffffffffffffffffffffff169050815f5f6101000a81548173ffffffffffffffffffffffffffffffffffffffff021916908373ffffffffffffffffffffffffffffffffffffffff1602179055508173ffffffffffffffffffffffffffffffffffffffff168173ffffffffffffffffffffffffffffffffffffffff167f8be0079c531659141344cd1fd0a4f28419497f9722a3daafe3b4186f6b6457e060405160405180910390a35050565b5f7f9b779b17422d0df92223018b32b4d1fa46e071723d6817e2486d003becc55f005f1b905090565b5f819050919050565b5f5ffd5b5f73ffffffffffffffffffffffffffffffffffffffff82169050919050565b5f6102658261023c565b9050919050565b6102758161025b565b811461027f575f5ffd5b50565b5f815190506102908161026c565b92915050565b5f5f604083850312156102ac576102ab610238565b5b5f6102b985828601610282565b92505060206102ca85828601610282565b9150509250929050565b6102dd8161025b565b82525050565b5f6020820190506102f65f8301846102d4565b92915050565b60805160a051612b7761039b5f395f8181610e6b015281816113420152818161170b015281816118fe01526119da01525f81816109cb01528181610baa01528181610c7901528181610d1301528181610d4f01528181610dd00152818161100a015281816111b201528181611283015281816115b3015281816115ef0152818161167001528181611a1601528181611a970152611f2f0152612b775ff3fe608060405234801561000f575f5ffd5b5060043610610140575f3560e01c80638da5cb5b116100b6578063c32ffb501161007a578063c32ffb5014610356578063e03ff7cb14610386578063e1e158a514610390578063e2bbb158146103ae578063f2fde38b146103ca578063f3f43703146103e657610140565b80638da5cb5b1461029c578063a0f2ed07146102ba578063a2bda5cb146102d8578063b232587614610308578063c1fe3e481461033857610140565b80634aa07e64116101085780634aa07e64146101d65780634b1533b2146101f45780634bdc4b30146102125780634f1eb1291461022e578063715018a6146102625780638bd345321461026c57610140565b80630849b2341461014457806309d9be621461017857806312edde5e1461019457806322611280146101b057806346eefd03146101ba575b5f5ffd5b61015e600480360381019061015991906120f9565b610418565b60405161016f959493929190612156565b60405180910390f35b610192600480360381019061018d9190612208565b610456565b005b6101ae60048036038101906101a9919061228f565b610508565b005b6101b86107ad565b005b6101d460048036038101906101cf91906120f9565b610927565b005b6101de6109c9565b6040516101eb9190612315565b60405180910390f35b6101fc6109ed565b604051610209919061232e565b60405180910390f35b61022c60048036038101906102279190612347565b6109f3565b005b610248600480360381019061024391906120f9565b610fbf565b604051610259959493929190612156565b60405180910390f35b61026a6110d6565b005b610286600480360381019061028191906120f9565b6110e9565b604051610293919061232e565b60405180910390f35b6102a46110fe565b6040516102b191906123c7565b60405180910390f35b6102c2611125565b6040516102cf919061232e565b60405180910390f35b6102f260048036038101906102ed91906120f9565b61112c565b6040516102ff91906123e0565b60405180910390f35b610322600480360381019061031d91906120f9565b611149565b60405161032f919061232e565b60405180910390f35b610340611340565b60405161034d9190612419565b60405180910390f35b610370600480360381019061036b91906120f9565b611364565b60405161037d91906123e0565b60405180910390f35b61038e6113ce565b005b61039861189f565b6040516103a5919061232e565b60405180910390f35b6103c860048036038101906103c39190612432565b6118aa565b005b6103e460048036038101906103df91906120f9565b611cf2565b005b61040060048036038101906103fb91906120f9565b611d76565b60405161040f93929190612470565b60405180910390f35b6001602052805f5260405f205f91509050805f015490806001015490806002015490806003015490806004015f9054906101000a900460ff16905085565b61045e611da8565b600160035f8573ffffffffffffffffffffffffffffffffffffffff1673ffffffffffffffffffffffffffffffffffffffff1681526020019081526020015f205f6101000a81548160ff0219169083151502179055508273ffffffffffffffffffffffffffffffffffffffff167f6656f0611d1347185270943bb9b4958736802177c4450b1739c335375158098e83836040516104fb9291906124ff565b60405180910390a2505050565b610510611e2f565b60015f3373ffffffffffffffffffffffffffffffffffffffff1673ffffffffffffffffffffffffffffffffffffffff1681526020019081526020015f206004015f9054906101000a900460ff1661059c576040517f08c379a00000000000000000000000000000000000000000000000000000000081526004016105939061256b565b60405180910390fd5b5f60015f3373ffffffffffffffffffffffffffffffffffffffff1673ffffffffffffffffffffffffffffffffffffffff1681526020019081526020015f20905081815f01541015610622576040517f08c379a0000000000000000000000000000000000000000000000000000000008152600401610619906125d3565b60405180910390fd5b60025f3373ffffffffffffffffffffffffffffffffffffffff1673ffffffffffffffffffffffffffffffffffffffff1681526020019081526020015f206002015f9054906101000a900460ff16156106af576040517f08c379a00000000000000000000000000000000000000000000000000000000081526004016106a69061263b565b60405180910390fd5b5f62093a80426106bf9190612686565b905060405180606001604052808481526020018281526020016001151581525060025f3373ffffffffffffffffffffffffffffffffffffffff1673ffffffffffffffffffffffffffffffffffffffff1681526020019081526020015f205f820151815f0155602082015181600101556040820151816002015f6101000a81548160ff0219169083151502179055509050503373ffffffffffffffffffffffffffffffffffffffff167f31f69201fab7912e3ec9850e3ab705964bf46d9d4276bdcbb6d05e965e5f540184836040516107989291906126b9565b60405180910390a250506107aa611e51565b50565b60015f3373ffffffffffffffffffffffffffffffffffffffff1673ffffffffffffffffffffffffffffffffffffffff1681526020019081526020015f206004015f9054906101000a900460ff16610839576040517f08c379a00000000000000000000000000000000000000000000000000000000081526004016108309061256b565b60405180910390fd5b60025f3373ffffffffffffffffffffffffffffffffffffffff1673ffffffffffffffffffffffffffffffffffffffff1681526020019081526020015f206002015f9054906101000a900460ff166108c5576040517f08c379a00000000000000000000000000000000000000000000000000000000081526004016108bc9061272a565b60405180910390fd5b60025f3373ffffffffffffffffffffffffffffffffffffffff1673ffffffffffffffffffffffffffffffffffffffff1681526020019081526020015f205f5f82015f9055600182015f9055600282015f6101000a81549060ff02191690555050565b61092f611da8565b5f60035f8373ffffffffffffffffffffffffffffffffffffffff1673ffffffffffffffffffffffffffffffffffffffff1681526020019081526020015f205f6101000a81548160ff0219169083151502179055508073ffffffffffffffffffffffffffffffffffffffff167fb15687505ad72b9fc8d24fa0a887e668f29301ded30f839a7ad250fad878806060405160405180910390a250565b7f000000000000000000000000000000000000000000000000000000000000000081565b60055481565b6109fb611e2f565b60015f3373ffffffffffffffffffffffffffffffffffffffff1673ffffffffffffffffffffffffffffffffffffffff1681526020019081526020015f206004015f9054906101000a900460ff16610a87576040517f08c379a0000000000000000000000000000000000000000000000000000000008152600401610a7e9061256b565b60405180910390fd5b8360035f8273ffffffffffffffffffffffffffffffffffffffff1673ffffffffffffffffffffffffffffffffffffffff1681526020019081526020015f205f9054906101000a900460ff16610b11576040517f08c379a0000000000000000000000000000000000000000000000000000000008152600401610b0890612792565b60405180910390fd5b5f60015f3373ffffffffffffffffffffffffffffffffffffffff1673ffffffffffffffffffffffffffffffffffffffff1681526020019081526020015f2090505f610b5b33611149565b905085811015610ba0576040517f08c379a0000000000000000000000000000000000000000000000000000000008152600401610b97906127fa565b60405180910390fd5b81600201546005547f000000000000000000000000000000000000000000000000000000000000000073ffffffffffffffffffffffffffffffffffffffff166370a08231306040518263ffffffff1660e01b8152600401610c0191906123c7565b602060405180830381865afa158015610c1c573d5f5f3e3d5ffd5b505050506040513d601f19601f82011682018060405250810190610c40919061282c565b610c4a9190612857565b610c549190612686565b826001018190555085826002015f828254610c6f9190612686565b925050819055505f7f000000000000000000000000000000000000000000000000000000000000000073ffffffffffffffffffffffffffffffffffffffff1663b0e38900886040518263ffffffff1660e01b8152600401610cd0919061232e565b602060405180830381865afa158015610ceb573d5f5f3e3d5ffd5b505050506040513d601f19601f82011682018060405250810190610d0f919061282c565b90507f000000000000000000000000000000000000000000000000000000000000000073ffffffffffffffffffffffffffffffffffffffff1663095ea7b37f0000000000000000000000000000000000000000000000000000000000000000836040518363ffffffff1660e01b8152600401610d8c92919061288a565b6020604051808303815f875af1158015610da8573d5f5f3e3d5ffd5b505050506040513d601f19601f82011682018060405250810190610dcc91906128db565b505f7f000000000000000000000000000000000000000000000000000000000000000073ffffffffffffffffffffffffffffffffffffffff1663de0e9a3e836040518263ffffffff1660e01b8152600401610e27919061232e565b6020604051808303815f875af1158015610e43573d5f5f3e3d5ffd5b505050506040513d601f19601f82011682018060405250810190610e67919061282c565b90507f000000000000000000000000000000000000000000000000000000000000000073ffffffffffffffffffffffffffffffffffffffff1663a9059cbb8a836040518363ffffffff1660e01b8152600401610ec492919061288a565b6020604051808303815f875af1158015610ee0573d5f5f3e3d5ffd5b505050506040513d601f19601f82011682018060405250810190610f0491906128db565b610f43576040517f08c379a0000000000000000000000000000000000000000000000000000000008152600401610f3a90612950565b60405180910390fd5b8873ffffffffffffffffffffffffffffffffffffffff163373ffffffffffffffffffffffffffffffffffffffff167f1235a435611b972175c29482589e977b7d315a9c2335de62aa5412c5bb8f16788a8a8a604051610fa49392919061296e565b60405180910390a35050505050610fb9611e51565b50505050565b5f5f5f5f5f5f60015f8873ffffffffffffffffffffffffffffffffffffffff1673ffffffffffffffffffffffffffffffffffffffff1681526020019081526020015f209050805f01547f000000000000000000000000000000000000000000000000000000000000000073ffffffffffffffffffffffffffffffffffffffff1663bb2952fc835f01546040518263ffffffff1660e01b8152600401611064919061232e565b602060405180830381865afa15801561107f573d5f5f3e3d5ffd5b505050506040513d601f19601f820116820180604052508101906110a3919061282c565b6110ac89611149565b8360020154846004015f9054906101000a900460ff16955095509550955095505091939590929450565b6110de611da8565b6110e75f611e6b565b565b6004602052805f5260405f205f915090505481565b5f5f5f9054906101000a900473ffffffffffffffffffffffffffffffffffffffff16905090565b62093a8081565b6003602052805f5260405f205f915054906101000a900460ff1681565b5f5f60015f8473ffffffffffffffffffffffffffffffffffffffff1673ffffffffffffffffffffffffffffffffffffffff1681526020019081526020015f209050806004015f9054906101000a900460ff166111a8575f91505061133b565b5f600554825f01547f000000000000000000000000000000000000000000000000000000000000000073ffffffffffffffffffffffffffffffffffffffff166370a08231306040518263ffffffff1660e01b815260040161120991906123c7565b602060405180830381865afa158015611224573d5f5f3e3d5ffd5b505050506040513d601f19601f82011682018060405250810190611248919061282c565b611252919061299e565b61125c9190612a0c565b90508160020154825f01546112719190612686565b8111611281575f9250505061133b565b7f000000000000000000000000000000000000000000000000000000000000000073ffffffffffffffffffffffffffffffffffffffff1663bb2952fc8360020154845f0154846112d19190612857565b6112db9190612857565b6040518263ffffffff1660e01b81526004016112f7919061232e565b602060405180830381865afa158015611312573d5f5f3e3d5ffd5b505050506040513d601f19601f82011682018060405250810190611336919061282c565b925050505b919050565b7f000000000000000000000000000000000000000000000000000000000000000081565b5f5f60025f8473ffffffffffffffffffffffffffffffffffffffff1673ffffffffffffffffffffffffffffffffffffffff1681526020019081526020015f209050806002015f9054906101000a900460ff1680156113c6575080600101544210155b915050919050565b6113d6611e2f565b60015f3373ffffffffffffffffffffffffffffffffffffffff1673ffffffffffffffffffffffffffffffffffffffff1681526020019081526020015f206004015f9054906101000a900460ff16611462576040517f08c379a00000000000000000000000000000000000000000000000000000000081526004016114599061256b565b60405180910390fd5b5f60025f3373ffffffffffffffffffffffffffffffffffffffff1673ffffffffffffffffffffffffffffffffffffffff1681526020019081526020015f209050806002015f9054906101000a900460ff166114f2576040517f08c379a00000000000000000000000000000000000000000000000000000000081526004016114e99061272a565b60405180910390fd5b8060010154421015611539576040517f08c379a000000000000000000000000000000000000000000000000000000000815260040161153090612a86565b60405180910390fd5b5f60015f3373ffffffffffffffffffffffffffffffffffffffff1673ffffffffffffffffffffffffffffffffffffffff1681526020019081526020015f2090505f825f0154905080825f015f8282546115929190612857565b925050819055508060055f8282546115aa9190612857565b925050819055507f000000000000000000000000000000000000000000000000000000000000000073ffffffffffffffffffffffffffffffffffffffff1663095ea7b37f0000000000000000000000000000000000000000000000000000000000000000836040518363ffffffff1660e01b815260040161162c92919061288a565b6020604051808303815f875af1158015611648573d5f5f3e3d5ffd5b505050506040513d601f19601f8201168201806040525081019061166c91906128db565b505f7f000000000000000000000000000000000000000000000000000000000000000073ffffffffffffffffffffffffffffffffffffffff1663de0e9a3e836040518263ffffffff1660e01b81526004016116c7919061232e565b6020604051808303815f875af11580156116e3573d5f5f3e3d5ffd5b505050506040513d601f19601f82011682018060405250810190611707919061282c565b90507f000000000000000000000000000000000000000000000000000000000000000073ffffffffffffffffffffffffffffffffffffffff1663a9059cbb33836040518363ffffffff1660e01b815260040161176492919061288a565b6020604051808303815f875af1158015611780573d5f5f3e3d5ffd5b505050506040513d601f19601f820116820180604052508101906117a491906128db565b6117e3576040517f08c379a00000000000000000000000000000000000000000000000000000000081526004016117da90612950565b60405180910390fd5b3373ffffffffffffffffffffffffffffffffffffffff167f6a0d6da0beb3b4dc509c4559b55ca29b5f90af6d351a3f9365bb5ab6b572c96082604051611829919061232e565b60405180910390a260025f3373ffffffffffffffffffffffffffffffffffffffff1673ffffffffffffffffffffffffffffffffffffffff1681526020019081526020015f205f5f82015f9055600182015f9055600282015f6101000a81549060ff021916905550505050505061189d611e51565b565b662386f26fc1000081565b6118b2611e2f565b662386f26fc100008210156118fc576040517f08c379a00000000000000000000000000000000000000000000000000000000081526004016118f390612aee565b60405180910390fd5b7f000000000000000000000000000000000000000000000000000000000000000073ffffffffffffffffffffffffffffffffffffffff166323b872dd3330856040518463ffffffff1660e01b815260040161195993929190612b0c565b6020604051808303815f875af1158015611975573d5f5f3e3d5ffd5b505050506040513d601f19601f8201168201806040525081019061199991906128db565b6119d8576040517f08c379a00000000000000000000000000000000000000000000000000000000081526004016119cf90612950565b60405180910390fd5b7f000000000000000000000000000000000000000000000000000000000000000073ffffffffffffffffffffffffffffffffffffffff1663095ea7b37f0000000000000000000000000000000000000000000000000000000000000000846040518363ffffffff1660e01b8152600401611a5392919061288a565b6020604051808303815f875af1158015611a6f573d5f5f3e3d5ffd5b505050506040513d601f19601f82011682018060405250810190611a9391906128db565b505f7f000000000000000000000000000000000000000000000000000000000000000073ffffffffffffffffffffffffffffffffffffffff1663ea598cb0846040518263ffffffff1660e01b8152600401611aee919061232e565b6020604051808303815f875af1158015611b0a573d5f5f3e3d5ffd5b505050506040513d601f19601f82011682018060405250810190611b2e919061282c565b90505f60015f3373ffffffffffffffffffffffffffffffffffffffff1673ffffffffffffffffffffffffffffffffffffffff1681526020019081526020015f209050806004015f9054906101000a900460ff16611c595781815f01819055508181600101819055506001816004015f6101000a81548160ff0219169083151502179055504281600301819055505f831115611c54578260045f3373ffffffffffffffffffffffffffffffffffffffff1673ffffffffffffffffffffffffffffffffffffffff1681526020019081526020015f20819055503373ffffffffffffffffffffffffffffffffffffffff167fd1b844701695237443dd884ed7193d9c8788f3befd35adc0910472eb166f330684604051611c4b919061232e565b60405180910390a25b611c7c565b611c6281611f2c565b81815f015f828254611c749190612686565b925050819055505b8160055f828254611c8d9190612686565b925050819055503373ffffffffffffffffffffffffffffffffffffffff167f73a19dd210f1a7f902193214c0ee91dd35ee5b4d920cba8d519eca65a7b488ca8584604051611cdc9291906126b9565b60405180910390a25050611cee611e51565b5050565b611cfa611da8565b5f73ffffffffffffffffffffffffffffffffffffffff168173ffffffffffffffffffffffffffffffffffffffff1603611d6a575f6040517f1e4fbdf7000000000000000000000000000000000000000000000000000000008152600401611d6191906123c7565b60405180910390fd5b611d7381611e6b565b50565b6002602052805f5260405f205f91509050805f015490806001015490806002015f9054906101000a900460ff16905083565b611db0612001565b73ffffffffffffffffffffffffffffffffffffffff16611dce6110fe565b73ffffffffffffffffffffffffffffffffffffffff1614611e2d57611df1612001565b6040517f118cdaa7000000000000000000000000000000000000000000000000000000008152600401611e2491906123c7565b60405180910390fd5b565b611e37612008565b6002611e49611e44612049565b612072565b5f0181905550565b6001611e63611e5e612049565b612072565b5f0181905550565b5f5f5f9054906101000a900473ffffffffffffffffffffffffffffffffffffffff169050815f5f6101000a81548173ffffffffffffffffffffffffffffffffffffffff021916908373ffffffffffffffffffffffffffffffffffffffff1602179055508173ffffffffffffffffffffffffffffffffffffffff168173ffffffffffffffffffffffffffffffffffffffff167f8be0079c531659141344cd1fd0a4f28419497f9722a3daafe3b4186f6b6457e060405160405180910390a35050565b5f7f000000000000000000000000000000000000000000000000000000000000000073ffffffffffffffffffffffffffffffffffffffff166370a08231306040518263ffffffff1660e01b8152600401611f8691906123c7565b602060405180830381865afa158015611fa1573d5f5f3e3d5ffd5b505050506040513d601f19601f82011682018060405250810190611fc5919061282c565b90505f600554835f015483611fda919061299e565b611fe49190612a0c565b90508260010154811115611ffc578083600101819055505b505050565b5f33905090565b61201061207b565b15612047576040517f3ee5aeb500000000000000000000000000000000000000000000000000000000815260040160405180910390fd5b565b5f7f9b779b17422d0df92223018b32b4d1fa46e071723d6817e2486d003becc55f005f1b905090565b5f819050919050565b5f600261208e612089612049565b612072565b5f015414905090565b5f5ffd5b5f5ffd5b5f73ffffffffffffffffffffffffffffffffffffffff82169050919050565b5f6120c88261209f565b9050919050565b6120d8816120be565b81146120e2575f5ffd5b50565b5f813590506120f3816120cf565b92915050565b5f6020828403121561210e5761210d612097565b5b5f61211b848285016120e5565b91505092915050565b5f819050919050565b61213681612124565b82525050565b5f8115159050919050565b6121508161213c565b82525050565b5f60a0820190506121695f83018861212d565b612176602083018761212d565b612183604083018661212d565b612190606083018561212d565b61219d6080830184612147565b9695505050505050565b5f5ffd5b5f5ffd5b5f5ffd5b5f5f83601f8401126121c8576121c76121a7565b5b8235905067ffffffffffffffff8111156121e5576121e46121ab565b5b602083019150836001820283011115612201576122006121af565b5b9250929050565b5f5f5f6040848603121561221f5761221e612097565b5b5f61222c868287016120e5565b935050602084013567ffffffffffffffff81111561224d5761224c61209b565b5b612259868287016121b3565b92509250509250925092565b61226e81612124565b8114612278575f5ffd5b50565b5f8135905061228981612265565b92915050565b5f602082840312156122a4576122a3612097565b5b5f6122b18482850161227b565b91505092915050565b5f819050919050565b5f6122dd6122d86122d38461209f565b6122ba565b61209f565b9050919050565b5f6122ee826122c3565b9050919050565b5f6122ff826122e4565b9050919050565b61230f816122f5565b82525050565b5f6020820190506123285f830184612306565b92915050565b5f6020820190506123415f83018461212d565b92915050565b5f5f5f5f6060858703121561235f5761235e612097565b5b5f61236c878288016120e5565b945050602061237d8782880161227b565b935050604085013567ffffffffffffffff81111561239e5761239d61209b565b5b6123aa878288016121b3565b925092505092959194509250565b6123c1816120be565b82525050565b5f6020820190506123da5f8301846123b8565b92915050565b5f6020820190506123f35f830184612147565b92915050565b5f612403826122e4565b9050919050565b612413816123f9565b82525050565b5f60208201905061242c5f83018461240a565b92915050565b5f5f6040838503121561244857612447612097565b5b5f6124558582860161227b565b92505060206124668582860161227b565b9150509250929050565b5f6060820190506124835f83018661212d565b612490602083018561212d565b61249d6040830184612147565b949350505050565b5f82825260208201905092915050565b828183375f83830152505050565b5f601f19601f8301169050919050565b5f6124de83856124a5565b93506124eb8385846124b5565b6124f4836124c3565b840190509392505050565b5f6020820190508181035f8301526125188184866124d3565b90509392505050565b7f4e6f2074726561737572792065786973747320666f72206167656e74000000005f82015250565b5f612555601c836124a5565b915061256082612521565b602082019050919050565b5f6020820190508181035f83015261258281612549565b9050919050565b7f496e73756666696369656e74207072696e636970616c000000000000000000005f82015250565b5f6125bd6016836124a5565b91506125c882612589565b602082019050919050565b5f6020820190508181035f8301526125ea816125b1565b9050919050565b7f5769746864726177616c20616c72656164792070656e64696e670000000000005f82015250565b5f612625601a836124a5565b9150612630826125f1565b602082019050919050565b5f6020820190508181035f83015261265281612619565b9050919050565b7f4e487b71000000000000000000000000000000000000000000000000000000005f52601160045260245ffd5b5f61269082612124565b915061269b83612124565b92508282019050808211156126b3576126b2612659565b5b92915050565b5f6040820190506126cc5f83018561212d565b6126d9602083018461212d565b9392505050565b7f4e6f2070656e64696e67207769746864726177616c00000000000000000000005f82015250565b5f6127146015836124a5565b915061271f826126e0565b602082019050919050565b5f6020820190508181035f83015261274181612708565b9050919050565b7f526563697069656e74206e6f7420616c6c6f776c6973746564000000000000005f82015250565b5f61277c6019836124a5565b915061278782612748565b602082019050919050565b5f6020820190508181035f8301526127a981612770565b9050919050565b7f496e73756666696369656e74207969656c6400000000000000000000000000005f82015250565b5f6127e46012836124a5565b91506127ef826127b0565b602082019050919050565b5f6020820190508181035f830152612811816127d8565b9050919050565b5f8151905061282681612265565b92915050565b5f6020828403121561284157612840612097565b5b5f61284e84828501612818565b91505092915050565b5f61286182612124565b915061286c83612124565b925082820390508181111561288457612883612659565b5b92915050565b5f60408201905061289d5f8301856123b8565b6128aa602083018461212d565b9392505050565b6128ba8161213c565b81146128c4575f5ffd5b50565b5f815190506128d5816128b1565b92915050565b5f602082840312156128f0576128ef612097565b5b5f6128fd848285016128c7565b91505092915050565b7f5472616e73666572206661696c656400000000000000000000000000000000005f82015250565b5f61293a600f836124a5565b915061294582612906565b602082019050919050565b5f6020820190508181035f8301526129678161292e565b9050919050565b5f6040820190506129815f83018661212d565b81810360208301526129948184866124d3565b9050949350505050565b5f6129a882612124565b91506129b383612124565b92508282026129c181612124565b915082820484148315176129d8576129d7612659565b5b5092915050565b7f4e487b71000000000000000000000000000000000000000000000000000000005f52601260045260245ffd5b5f612a1682612124565b9150612a2183612124565b925082612a3157612a306129df565b5b828204905092915050565b7f54696d65206c6f636b206e6f74206578706972656400000000000000000000005f82015250565b5f612a706015836124a5565b9150612a7b82612a3c565b602082019050919050565b5f6020820190508181035f830152612a9d81612a64565b9050919050565b7f416d6f756e742062656c6f77206d696e696d756d206465706f736974000000005f82015250565b5f612ad8601c836124a5565b9150612ae382612aa4565b602082019050919050565b5f6020820190508181035f830152612b0581612acc565b9050919050565b5f606082019050612b1f5f8301866123b8565b612b2c60208301856123b8565b612b39604083018461212d565b94935050505056fea26469706673582212203fdf4102a97921c0637f7f17cfe44d045c6820e003c66f2d0f356f753001073f64736f6c63430008210033","linkReferences":{}},"methodIdentifiers":{"MIN_DEPOSIT()":"e1e158a5","WITHDRAWAL_LOCK()":"a0f2ed07","agentERC8004Id(address)":"8bd34532","allowlistSpending(address,string)":"09d9be62","cancelWithdrawal()":"22611280","completeWithdrawal()":"e03ff7cb","delistSpending(address)":"46eefd03","deposit(uint256,uint256)":"e2bbb158","getAvailableYield(address)":"b2325876","getTreasuryInfo(address)":"4f1eb129","initiateWithdrawal(uint256)":"12edde5e","isWithdrawalReady(address)":"c32ffb50","owner()":"8da5cb5b","pendingWithdrawals(address)":"f3f43703","renounceOwnership()":"715018a6","spendYield(address,uint256,string)":"4bdc4b30","spendingAllowlist(address)":"a2bda5cb","stETH()":"c1fe3e48","totalPrincipal()":"4b1533b2","transferOwnership(address)":"f2fde38b","treasuries(address)":"0849b234","wstETH()":"4aa07e64"},"id":23}