{"abi":[{"type":"constructor","inputs":[{"name":"_wstETH","type":"address","internalType":"address"},{"name":"_swapRouter","type":"address","internalType":"address"},{"name":"_weth","type":"address","internalType":"address"},{"name":"_usdc","type":"address","internalType":"address"}],"stateMutability":"nonpayable"},{"type":"function","name":"MIN_DEPOSIT","inputs":[],"outputs":[{"name":"","type":"uint256","internalType":"uint256"}],"stateMutability":"view"},{"type":"function","name":"USDC","inputs":[],"outputs":[{"name":"","type":"address","internalType":"address"}],"stateMutability":"view"},{"type":"function","name":"WETH","inputs":[],"outputs":[{"name":"","type":"address","internalType":"address"}],"stateMutability":"view"},{"type":"function","name":"WITHDRAWAL_LOCK","inputs":[],"outputs":[{"name":"","type":"uint256","internalType":"uint256"}],"stateMutability":"view"},{"type":"function","name":"agentERC8004Id","inputs":[{"name":"","type":"address","internalType":"address"}],"outputs":[{"name":"","type":"uint256","internalType":"uint256"}],"stateMutability":"view"},{"type":"function","name":"allowlistAIProviders","inputs":[{"name":"providers","type":"address[]","internalType":"address[]"},{"name":"names","type":"string[]","internalType":"string[]"}],"outputs":[],"stateMutability":"nonpayable"},{"type":"function","name":"allowlistSpending","inputs":[{"name":"recipient","type":"address","internalType":"address"},{"name":"serviceName","type":"string","internalType":"string"}],"outputs":[],"stateMutability":"nonpayable"},{"type":"function","name":"cancelWithdrawal","inputs":[],"outputs":[],"stateMutability":"nonpayable"},{"type":"function","name":"completeWithdrawal","inputs":[],"outputs":[],"stateMutability":"nonpayable"},{"type":"function","name":"delistSpending","inputs":[{"name":"recipient","type":"address","internalType":"address"}],"outputs":[],"stateMutability":"nonpayable"},{"type":"function","name":"deposit","inputs":[{"name":"amount","type":"uint256","internalType":"uint256"},{"name":"erc8004Id","type":"uint256","internalType":"uint256"}],"outputs":[],"stateMutability":"nonpayable"},{"type":"function","name":"getAccruedYield","inputs":[{"name":"agent","type":"address","internalType":"address"}],"outputs":[{"name":"","type":"uint256","internalType":"uint256"}],"stateMutability":"view"},{"type":"function","name":"getAvailableYield","inputs":[{"name":"agent","type":"address","internalType":"address"}],"outputs":[{"name":"","type":"uint256","internalType":"uint256"}],"stateMutability":"view"},{"type":"function","name":"getCurrentStEthPerToken","inputs":[],"outputs":[{"name":"","type":"uint256","internalType":"uint256"}],"stateMutability":"view"},{"type":"function","name":"getTreasuryInfo","inputs":[{"name":"agent","type":"address","internalType":"address"}],"outputs":[{"name":"principal","type":"uint256","internalType":"uint256"},{"name":"availableYield","type":"uint256","internalType":"uint256"},{"name":"totalYieldClaimed","type":"uint256","internalType":"uint256"},{"name":"totalYieldSpent","type":"uint256","internalType":"uint256"},{"name":"depositTime","type":"uint256","internalType":"uint256"},{"name":"currentRate","type":"uint256","internalType":"uint256"},{"name":"depositRate","type":"uint256","internalType":"uint256"},{"name":"exists","type":"bool","internalType":"bool"}],"stateMutability":"view"},{"type":"function","name":"getWithdrawalInfo","inputs":[{"name":"agent","type":"address","internalType":"address"}],"outputs":[{"name":"amount","type":"uint256","internalType":"uint256"},{"name":"unlockTime","type":"uint256","internalType":"uint256"},{"name":"ready","type":"bool","internalType":"bool"}],"stateMutability":"view"},{"type":"function","name":"getYieldStats","inputs":[{"name":"agent","type":"address","internalType":"address"}],"outputs":[{"name":"principalWstETH","type":"uint256","internalType":"uint256"},{"name":"currentStETHValue","type":"uint256","internalType":"uint256"},{"name":"yieldEarnedStETH","type":"uint256","internalType":"uint256"},{"name":"aprBps","type":"uint256","internalType":"uint256"}],"stateMutability":"view"},{"type":"function","name":"initiateWithdrawal","inputs":[{"name":"amount","type":"uint256","internalType":"uint256"}],"outputs":[],"stateMutability":"nonpayable"},{"type":"function","name":"owner","inputs":[],"outputs":[{"name":"","type":"address","internalType":"address"}],"stateMutability":"view"},{"type":"function","name":"pendingWithdrawals","inputs":[{"name":"","type":"address","internalType":"address"}],"outputs":[{"name":"amount","type":"uint256","internalType":"uint256"},{"name":"unlockTime","type":"uint256","internalType":"uint256"},{"name":"exists","type":"bool","internalType":"bool"}],"stateMutability":"view"},{"type":"function","name":"renounceOwnership","inputs":[],"outputs":[],"stateMutability":"nonpayable"},{"type":"function","name":"serviceProviderNames","inputs":[{"name":"","type":"address","internalType":"address"}],"outputs":[{"name":"","type":"string","internalType":"string"}],"stateMutability":"view"},{"type":"function","name":"spendYield","inputs":[{"name":"recipient","type":"address","internalType":"address"},{"name":"amount","type":"uint256","internalType":"uint256"},{"name":"purpose","type":"string","internalType":"string"}],"outputs":[],"stateMutability":"nonpayable"},{"type":"function","name":"spendingAllowlist","inputs":[{"name":"","type":"address","internalType":"address"}],"outputs":[{"name":"","type":"bool","internalType":"bool"}],"stateMutability":"view"},{"type":"function","name":"swapRouter","inputs":[],"outputs":[{"name":"","type":"address","internalType":"contract ISwapRouter"}],"stateMutability":"view"},{"type":"function","name":"swapYieldToETH","inputs":[{"name":"minEthOut","type":"uint256","internalType":"uint256"}],"outputs":[{"name":"ethAmount","type":"uint256","internalType":"uint256"}],"stateMutability":"nonpayable"},{"type":"function","name":"swapYieldToUSDC","inputs":[{"name":"minUsdcOut","type":"uint256","internalType":"uint256"}],"outputs":[{"name":"usdcAmount","type":"uint256","internalType":"uint256"}],"stateMutability":"nonpayable"},{"type":"function","name":"swapYieldToUSDCSingle","inputs":[{"name":"minUsdcOut","type":"uint256","internalType":"uint256"},{"name":"feeTier","type":"uint24","internalType":"uint24"}],"outputs":[{"name":"usdcAmount","type":"uint256","internalType":"uint256"}],"stateMutability":"nonpayable"},{"type":"function","name":"sweepYield","inputs":[],"outputs":[{"name":"","type":"uint256","internalType":"uint256"}],"stateMutability":"nonpayable"},{"type":"function","name":"totalPrincipal","inputs":[],"outputs":[{"name":"","type":"uint256","internalType":"uint256"}],"stateMutability":"view"},{"type":"function","name":"transferOwnership","inputs":[{"name":"newOwner","type":"address","internalType":"address"}],"outputs":[],"stateMutability":"nonpayable"},{"type":"function","name":"treasuries","inputs":[{"name":"","type":"address","internalType":"address"}],"outputs":[{"name":"principalShares","type":"uint256","internalType":"uint256"},{"name":"depositStEthPerToken","type":"uint256","internalType":"uint256"},{"name":"lastStEthPerToken","type":"uint256","internalType":"uint256"},{"name":"totalYieldClaimed","type":"uint256","internalType":"uint256"},{"name":"totalYieldSpent","type":"uint256","internalType":"uint256"},{"name":"depositTimestamp","type":"uint256","internalType":"uint256"},{"name":"exists","type":"bool","internalType":"bool"}],"stateMutability":"view"},{"type":"function","name":"wstETH","inputs":[],"outputs":[{"name":"","type":"address","internalType":"contract IWstETH"}],"stateMutability":"view"},{"type":"event","name":"AgentRegistered","inputs":[{"name":"agent","type":"address","indexed":true,"internalType":"address"},{"name":"erc8004Id","type":"uint256","indexed":false,"internalType":"uint256"}],"anonymous":false},{"type":"event","name":"Deposited","inputs":[{"name":"agent","type":"address","indexed":true,"internalType":"address"},{"name":"wstETHAmount","type":"uint256","indexed":false,"internalType":"uint256"},{"name":"stEthPerToken","type":"uint256","indexed":false,"internalType":"uint256"}],"anonymous":false},{"type":"event","name":"InferencePurchased","inputs":[{"name":"agent","type":"address","indexed":true,"internalType":"address"},{"name":"provider","type":"string","indexed":false,"internalType":"string"},{"name":"usdcAmount","type":"uint256","indexed":false,"internalType":"uint256"},{"name":"credits","type":"uint256","indexed":false,"internalType":"uint256"}],"anonymous":false},{"type":"event","name":"OwnershipTransferred","inputs":[{"name":"previousOwner","type":"address","indexed":true,"internalType":"address"},{"name":"newOwner","type":"address","indexed":true,"internalType":"address"}],"anonymous":false},{"type":"event","name":"PrincipalWithdrawn","inputs":[{"name":"agent","type":"address","indexed":true,"internalType":"address"},{"name":"amount","type":"uint256","indexed":false,"internalType":"uint256"}],"anonymous":false},{"type":"event","name":"SpendingAllowlisted","inputs":[{"name":"recipient","type":"address","indexed":true,"internalType":"address"},{"name":"service","type":"string","indexed":false,"internalType":"string"}],"anonymous":false},{"type":"event","name":"SpendingDelisted","inputs":[{"name":"recipient","type":"address","indexed":true,"internalType":"address"}],"anonymous":false},{"type":"event","name":"WithdrawalCancelled","inputs":[{"name":"agent","type":"address","indexed":true,"internalType":"address"}],"anonymous":false},{"type":"event","name":"WithdrawalInitiated","inputs":[{"name":"agent","type":"address","indexed":true,"internalType":"address"},{"name":"amount","type":"uint256","indexed":false,"internalType":"uint256"},{"name":"unlockTime","type":"uint256","indexed":false,"internalType":"uint256"}],"anonymous":false},{"type":"event","name":"YieldClaimed","inputs":[{"name":"agent","type":"address","indexed":true,"internalType":"address"},{"name":"amount","type":"uint256","indexed":false,"internalType":"uint256"}],"anonymous":false},{"type":"event","name":"YieldSpent","inputs":[{"name":"agent","type":"address","indexed":true,"internalType":"address"},{"name":"recipient","type":"address","indexed":true,"internalType":"address"},{"name":"amount","type":"uint256","indexed":false,"internalType":"uint256"},{"name":"purpose","type":"string","indexed":false,"internalType":"string"}],"anonymous":false},{"type":"event","name":"YieldSwappedToETH","inputs":[{"name":"agent","type":"address","indexed":true,"internalType":"address"},{"name":"wstETHAmount","type":"uint256","indexed":false,"internalType":"uint256"},{"name":"ethAmount","type":"uint256","indexed":false,"internalType":"uint256"}],"anonymous":false},{"type":"event","name":"YieldSwappedToUSDC","inputs":[{"name":"agent","type":"address","indexed":true,"internalType":"address"},{"name":"wstETHAmount","type":"uint256","indexed":false,"internalType":"uint256"},{"name":"usdcAmount","type":"uint256","indexed":false,"internalType":"uint256"}],"anonymous":false},{"type":"error","name":"OwnableInvalidOwner","inputs":[{"name":"owner","type":"address","internalType":"address"}]},{"type":"error","name":"OwnableUnauthorizedAccount","inputs":[{"name":"account","type":"address","internalType":"address"}]},{"type":"error","name":"ReentrancyGuardReentrantCall","inputs":[]}],"bytecode":{"object":"0x610100604052348015610010575f5ffd5b50604051614cae380380614cae833981810160405281019061003291906104b9565b335f73ffffffffffffffffffffffffffffffffffffffff168173ffffffffffffffffffffffffffffffffffffffff16036100a3575f6040517f1e4fbdf700000000000000000000000000000000000000000000000000000000815260040161009a919061052c565b60405180910390fd5b6100b28161036860201b60201c565b5060016100d16100c661042960201b60201c565b61045260201b60201c565b5f01819055505f73ffffffffffffffffffffffffffffffffffffffff168473ffffffffffffffffffffffffffffffffffffffff1603610145576040517f08c379a000000000000000000000000000000000000000000000000000000000815260040161013c9061059f565b60405180910390fd5b5f73ffffffffffffffffffffffffffffffffffffffff168373ffffffffffffffffffffffffffffffffffffffff16036101b3576040517f08c379a00000000000000000000000000000000000000000000000000000000081526004016101aa90610607565b60405180910390fd5b5f73ffffffffffffffffffffffffffffffffffffffff168273ffffffffffffffffffffffffffffffffffffffff1603610221576040517f08c379a00000000000000000000000000000000000000000000000000000000081526004016102189061066f565b60405180910390fd5b5f73ffffffffffffffffffffffffffffffffffffffff168173ffffffffffffffffffffffffffffffffffffffff160361028f576040517f08c379a0000000000000000000000000000000000000000000000000000000008152600401610286906106d7565b60405180910390fd5b8373ffffffffffffffffffffffffffffffffffffffff1660808173ffffffffffffffffffffffffffffffffffffffff16815250508273ffffffffffffffffffffffffffffffffffffffff1660a08173ffffffffffffffffffffffffffffffffffffffff16815250508173ffffffffffffffffffffffffffffffffffffffff1660c08173ffffffffffffffffffffffffffffffffffffffff16815250508073ffffffffffffffffffffffffffffffffffffffff1660e08173ffffffffffffffffffffffffffffffffffffffff1681525050505050506106f5565b5f5f5f9054906101000a900473ffffffffffffffffffffffffffffffffffffffff169050815f5f6101000a81548173ffffffffffffffffffffffffffffffffffffffff021916908373ffffffffffffffffffffffffffffffffffffffff1602179055508173ffffffffffffffffffffffffffffffffffffffff168173ffffffffffffffffffffffffffffffffffffffff167f8be0079c531659141344cd1fd0a4f28419497f9722a3daafe3b4186f6b6457e060405160405180910390a35050565b5f7f9b779b17422d0df92223018b32b4d1fa46e071723d6817e2486d003becc55f005f1b905090565b5f819050919050565b5f5ffd5b5f73ffffffffffffffffffffffffffffffffffffffff82169050919050565b5f6104888261045f565b9050919050565b6104988161047e565b81146104a2575f5ffd5b50565b5f815190506104b38161048f565b92915050565b5f5f5f5f608085870312156104d1576104d061045b565b5b5f6104de878288016104a5565b94505060206104ef878288016104a5565b9350506040610500878288016104a5565b9250506060610511878288016104a5565b91505092959194509250565b6105268161047e565b82525050565b5f60208201905061053f5f83018461051d565b92915050565b5f82825260208201905092915050565b7f496e76616c6964207773744554480000000000000000000000000000000000005f82015250565b5f610589600e83610545565b915061059482610555565b602082019050919050565b5f6020820190508181035f8301526105b68161057d565b9050919050565b7f496e76616c696420726f757465720000000000000000000000000000000000005f82015250565b5f6105f1600e83610545565b91506105fc826105bd565b602082019050919050565b5f6020820190508181035f83015261061e816105e5565b9050919050565b7f496e76616c6964205745544800000000000000000000000000000000000000005f82015250565b5f610659600c83610545565b915061066482610625565b602082019050919050565b5f6020820190508181035f8301526106868161064d565b9050919050565b7f496e76616c6964205553444300000000000000000000000000000000000000005f82015250565b5f6106c1600c83610545565b91506106cc8261068d565b602082019050919050565b5f6020820190508181035f8301526106ee816106b5565b9050919050565b60805160a05160c05160e0516144ec6107c25f395f8181611c9a01528181611ee7015261225f01525f818161121901528181611c760152611f6b01525f8181611150015281816112ac01528181611bc601528181611d1101528181612196015281816122f0015261247f01525f818161091701528181611114015281816111dd0152818161166a0152818161185b01528181611b8a01528181611c520152818161215a01528181612223015281816123ed0152818161283a015281816129cc0152612aa901526144ec5ff3fe608060405234801561000f575f5ffd5b50600436106101f9575f3560e01c806378b89d9011610118578063b4e0f5d9116100ab578063e03ff7cb1161007a578063e03ff7cb146105fd578063e1e158a514610607578063e2bbb15814610625578063f2fde38b14610641578063f3f437031461065d576101f9565b8063b4e0f5d91461055e578063c30a996b1461058e578063c31c9c07146105ac578063d7f91f31146105ca576101f9565b8063a0f2ed07116100e7578063a0f2ed07146104c2578063a2bda5cb146104e0578063ad5c464814610510578063b23258761461052e576101f9565b806378b89d901461042657806389a30271146104565780638bd34532146104745780638da5cb5b146104a4576101f9565b806343f7e6d7116101905780634bdc4b301161015f5780634bdc4b30146103995780634f1eb129146103b55780635dbd02c9146103ec578063715018a61461041c576101f9565b806343f7e6d71461032557806346eefd03146103415780634aa07e641461035d5780634b1533b21461037b576101f9565b8063208120a7116101cc578063208120a71461028957806322611280146102bb578063252c8927146102c557806332fa59f7146102f5576101f9565b80630849b234146101fd57806309d9be62146102335780630fa558051461024f57806312edde5e1461026d575b5f5ffd5b6102176004803603810190610212919061305f565b61068f565b60405161022a97969594939291906130bc565b60405180910390f35b61024d6004803603810190610248919061318a565b6106d9565b005b6102576107d8565b60405161026491906131e7565b60405180910390f35b6102876004803603810190610282919061322a565b610a4d565b005b6102a3600480360381019061029e919061305f565b610cf2565b6040516102b293929190613255565b60405180910390f35b6102c3610d6d565b005b6102df60048036038101906102da919061305f565b610f3a565b6040516102ec91906132fa565b60405180910390f35b61030f600480360381019061030a919061322a565b610fd5565b60405161031c91906131e7565b60405180910390f35b61033f600480360381019061033a91906133c4565b6113a5565b005b61035b6004803603810190610356919061305f565b6115c6565b005b610365611668565b604051610372919061349d565b60405180910390f35b61038361168c565b60405161039091906131e7565b60405180910390f35b6103b360048036038101906103ae91906134b6565b611692565b005b6103cf60048036038101906103ca919061305f565b6119ad565b6040516103e3989796959493929190613527565b60405180910390f35b6104066004803603810190610401919061322a565b611a4b565b60405161041391906131e7565b60405180910390f35b610424611e0a565b005b610440600480360381019061043b919061305f565b611e1d565b60405161044d91906131e7565b60405180910390f35b61045e611ee5565b60405161046b91906135b2565b60405180910390f35b61048e6004803603810190610489919061305f565b611f09565b60405161049b91906131e7565b60405180910390f35b6104ac611f1e565b6040516104b991906135b2565b60405180910390f35b6104ca611f45565b6040516104d791906131e7565b60405180910390f35b6104fa60048036038101906104f5919061305f565b611f4c565b60405161050791906135cb565b60405180910390f35b610518611f69565b60405161052591906135b2565b60405180910390f35b6105486004803603810190610543919061305f565b611f8d565b60405161055591906131e7565b60405180910390f35b6105786004803603810190610573919061361c565b61201b565b60405161058591906131e7565b60405180910390f35b6105966123ea565b6040516105a391906131e7565b60405180910390f35b6105b461247d565b6040516105c1919061367a565b60405180910390f35b6105e460048036038101906105df919061305f565b6124a1565b6040516105f49493929190613693565b60405180910390f35b6106056125f5565b005b61060f61296d565b60405161061c91906131e7565b60405180910390f35b61063f600480360381019061063a91906136d6565b612978565b005b61065b6004803603810190610656919061305f565b612d02565b005b6106776004803603810190610672919061305f565b612d86565b60405161068693929190613255565b60405180910390f35b6001602052805f5260405f205f91509050805f015490806001015490806002015490806003015490806004015490806005015490806006015f9054906101000a900460ff16905087565b6106e1612db8565b600160035f8573ffffffffffffffffffffffffffffffffffffffff1673ffffffffffffffffffffffffffffffffffffffff1681526020019081526020015f205f6101000a81548160ff021916908315150217905550818160045f8673ffffffffffffffffffffffffffffffffffffffff1673ffffffffffffffffffffffffffffffffffffffff1681526020019081526020015f209182610782929190613950565b508273ffffffffffffffffffffffffffffffffffffffff167f6656f0611d1347185270943bb9b4958736802177c4450b1739c335375158098e83836040516107cb929190613a57565b60405180910390a2505050565b5f6107e1612e3f565b60015f3373ffffffffffffffffffffffffffffffffffffffff1673ffffffffffffffffffffffffffffffffffffffff1681526020019081526020015f206006015f9054906101000a900460ff1661086d576040517f08c379a000000000000000000000000000000000000000000000000000000000815260040161086490613ac3565b60405180910390fd5b5f60015f3373ffffffffffffffffffffffffffffffffffffffff1673ffffffffffffffffffffffffffffffffffffffff1681526020019081526020015f2090505f6108b782612e61565b90505f81116108fb576040517f08c379a00000000000000000000000000000000000000000000000000000000081526004016108f290613b2b565b60405180910390fd5b80826003015f82825461090e9190613b76565b925050819055507f000000000000000000000000000000000000000000000000000000000000000073ffffffffffffffffffffffffffffffffffffffff1663a9059cbb33836040518363ffffffff1660e01b8152600401610970929190613ba9565b6020604051808303815f875af115801561098c573d5f5f3e3d5ffd5b505050506040513d601f19601f820116820180604052508101906109b09190613bfa565b6109ef576040517f08c379a00000000000000000000000000000000000000000000000000000000081526004016109e690613c6f565b60405180910390fd5b3373ffffffffffffffffffffffffffffffffffffffff167fc04825ba3f383b602255d2a13065a68e325c65c9e0ed5d031ea2b06f641873af82604051610a3591906131e7565b60405180910390a28092505050610a4a612e8c565b90565b610a55612e3f565b60015f3373ffffffffffffffffffffffffffffffffffffffff1673ffffffffffffffffffffffffffffffffffffffff1681526020019081526020015f206006015f9054906101000a900460ff16610ae1576040517f08c379a0000000000000000000000000000000000000000000000000000000008152600401610ad890613ac3565b60405180910390fd5b5f60015f3373ffffffffffffffffffffffffffffffffffffffff1673ffffffffffffffffffffffffffffffffffffffff1681526020019081526020015f20905081815f01541015610b67576040517f08c379a0000000000000000000000000000000000000000000000000000000008152600401610b5e90613cd7565b60405180910390fd5b60025f3373ffffffffffffffffffffffffffffffffffffffff1673ffffffffffffffffffffffffffffffffffffffff1681526020019081526020015f206002015f9054906101000a900460ff1615610bf4576040517f08c379a0000000000000000000000000000000000000000000000000000000008152600401610beb90613d3f565b60405180910390fd5b5f62093a8042610c049190613b76565b905060405180606001604052808481526020018281526020016001151581525060025f3373ffffffffffffffffffffffffffffffffffffffff1673ffffffffffffffffffffffffffffffffffffffff1681526020019081526020015f205f820151815f0155602082015181600101556040820151816002015f6101000a81548160ff0219169083151502179055509050503373ffffffffffffffffffffffffffffffffffffffff167f31f69201fab7912e3ec9850e3ab705964bf46d9d4276bdcbb6d05e965e5f54018483604051610cdd929190613d5d565b60405180910390a25050610cef612e8c565b50565b5f5f5f5f60025f8673ffffffffffffffffffffffffffffffffffffffff1673ffffffffffffffffffffffffffffffffffffffff1681526020019081526020015f209050805f01548160010154826002015f9054906101000a900460ff168015610d5f575082600101544210155b935093509350509193909250565b610d75612e3f565b60015f3373ffffffffffffffffffffffffffffffffffffffff1673ffffffffffffffffffffffffffffffffffffffff1681526020019081526020015f206006015f9054906101000a900460ff16610e01576040517f08c379a0000000000000000000000000000000000000000000000000000000008152600401610df890613ac3565b60405180910390fd5b60025f3373ffffffffffffffffffffffffffffffffffffffff1673ffffffffffffffffffffffffffffffffffffffff1681526020019081526020015f206002015f9054906101000a900460ff16610e8d576040517f08c379a0000000000000000000000000000000000000000000000000000000008152600401610e8490613dce565b60405180910390fd5b3373ffffffffffffffffffffffffffffffffffffffff167fc51fdb96728de385ec7859819e3997bc618362ef0dbca0ad051d856866cda3db60405160405180910390a260025f3373ffffffffffffffffffffffffffffffffffffffff1673ffffffffffffffffffffffffffffffffffffffff1681526020019081526020015f205f5f82015f9055600182015f9055600282015f6101000a81549060ff02191690555050610f38612e8c565b565b6004602052805f5260405f205f915090508054610f5690613778565b80601f0160208091040260200160405190810160405280929190818152602001828054610f8290613778565b8015610fcd5780601f10610fa457610100808354040283529160200191610fcd565b820191905f5260205f20905b815481529060010190602001808311610fb057829003601f168201915b505050505081565b5f610fde612e3f565b60015f3373ffffffffffffffffffffffffffffffffffffffff1673ffffffffffffffffffffffffffffffffffffffff1681526020019081526020015f206006015f9054906101000a900460ff1661106a576040517f08c379a000000000000000000000000000000000000000000000000000000000815260040161106190613ac3565b60405180910390fd5b5f60015f3373ffffffffffffffffffffffffffffffffffffffff1673ffffffffffffffffffffffffffffffffffffffff1681526020019081526020015f2090505f6110b482612e61565b90505f81116110f8576040517f08c379a00000000000000000000000000000000000000000000000000000000081526004016110ef90613b2b565b60405180910390fd5b80826003015f82825461110b9190613b76565b925050819055507f000000000000000000000000000000000000000000000000000000000000000073ffffffffffffffffffffffffffffffffffffffff1663095ea7b37f0000000000000000000000000000000000000000000000000000000000000000836040518363ffffffff1660e01b815260040161118d929190613ba9565b6020604051808303815f875af11580156111a9573d5f5f3e3d5ffd5b505050506040513d601f19601f820116820180604052508101906111cd9190613bfa565b505f6040518061010001604052807f000000000000000000000000000000000000000000000000000000000000000073ffffffffffffffffffffffffffffffffffffffff1681526020017f000000000000000000000000000000000000000000000000000000000000000073ffffffffffffffffffffffffffffffffffffffff168152602001610bb862ffffff1681526020013373ffffffffffffffffffffffffffffffffffffffff1681526020014281526020018381526020018681526020015f73ffffffffffffffffffffffffffffffffffffffff1681525090507f000000000000000000000000000000000000000000000000000000000000000073ffffffffffffffffffffffffffffffffffffffff1663414bf389826040518263ffffffff1660e01b81526004016113039190613ec8565b6020604051808303815f875af115801561131f573d5f5f3e3d5ffd5b505050506040513d601f19601f820116820180604052508101906113439190613ef6565b93503373ffffffffffffffffffffffffffffffffffffffff167f6b1429e2b7eecc2e059aeaf2a2e26fa489d920152807d1279729cfd9e10f5172838660405161138d929190613d5d565b60405180910390a25050506113a0612e8c565b919050565b6113ad612db8565b8181905084849050146113f5576040517f08c379a00000000000000000000000000000000000000000000000000000000081526004016113ec90613f6b565b60405180910390fd5b5f5f90505b848490508110156115bf57600160035f87878581811061141d5761141c613f89565b5b9050602002016020810190611432919061305f565b73ffffffffffffffffffffffffffffffffffffffff1673ffffffffffffffffffffffffffffffffffffffff1681526020019081526020015f205f6101000a81548160ff02191690831515021790555082828281811061149457611493613f89565b5b90506020028101906114a69190613fc2565b60045f8888868181106114bc576114bb613f89565b5b90506020020160208101906114d1919061305f565b73ffffffffffffffffffffffffffffffffffffffff1673ffffffffffffffffffffffffffffffffffffffff1681526020019081526020015f209182611517929190613950565b5084848281811061152b5761152a613f89565b5b9050602002016020810190611540919061305f565b73ffffffffffffffffffffffffffffffffffffffff167f6656f0611d1347185270943bb9b4958736802177c4450b1739c335375158098e84848481811061158a57611589613f89565b5b905060200281019061159c9190613fc2565b6040516115aa929190613a57565b60405180910390a280806001019150506113fa565b5050505050565b6115ce612db8565b5f60035f8373ffffffffffffffffffffffffffffffffffffffff1673ffffffffffffffffffffffffffffffffffffffff1681526020019081526020015f205f6101000a81548160ff0219169083151502179055508073ffffffffffffffffffffffffffffffffffffffff167fb15687505ad72b9fc8d24fa0a887e668f29301ded30f839a7ad250fad878806060405160405180910390a250565b7f000000000000000000000000000000000000000000000000000000000000000081565b60065481565b61169a612e3f565b60015f3373ffffffffffffffffffffffffffffffffffffffff1673ffffffffffffffffffffffffffffffffffffffff1681526020019081526020015f206006015f9054906101000a900460ff16611726576040517f08c379a000000000000000000000000000000000000000000000000000000000815260040161171d90613ac3565b60405180910390fd5b8360035f8273ffffffffffffffffffffffffffffffffffffffff1673ffffffffffffffffffffffffffffffffffffffff1681526020019081526020015f205f9054906101000a900460ff166117b0576040517f08c379a00000000000000000000000000000000000000000000000000000000081526004016117a79061406e565b60405180910390fd5b5f60015f3373ffffffffffffffffffffffffffffffffffffffff1673ffffffffffffffffffffffffffffffffffffffff1681526020019081526020015f2090505f6117fa82612e61565b90508581101561183f576040517f08c379a0000000000000000000000000000000000000000000000000000000008152600401611836906140d6565b60405180910390fd5b85826004015f8282546118529190613b76565b925050819055507f000000000000000000000000000000000000000000000000000000000000000073ffffffffffffffffffffffffffffffffffffffff1663a9059cbb88886040518363ffffffff1660e01b81526004016118b4929190613ba9565b6020604051808303815f875af11580156118d0573d5f5f3e3d5ffd5b505050506040513d601f19601f820116820180604052508101906118f49190613bfa565b611933576040517f08c379a000000000000000000000000000000000000000000000000000000000815260040161192a90613c6f565b60405180910390fd5b8673ffffffffffffffffffffffffffffffffffffffff163373ffffffffffffffffffffffffffffffffffffffff167f1235a435611b972175c29482589e977b7d315a9c2335de62aa5412c5bb8f1678888888604051611994939291906140f4565b60405180910390a35050506119a7612e8c565b50505050565b5f5f5f5f5f5f5f5f5f60015f8b73ffffffffffffffffffffffffffffffffffffffff1673ffffffffffffffffffffffffffffffffffffffff1681526020019081526020015f209050805f0154611a028b611f8d565b826003015483600401548460050154611a196123ea565b8660010154876006015f9054906101000a900460ff169850985098509850985098509850985050919395975091939597565b5f611a54612e3f565b60015f3373ffffffffffffffffffffffffffffffffffffffff1673ffffffffffffffffffffffffffffffffffffffff1681526020019081526020015f206006015f9054906101000a900460ff16611ae0576040517f08c379a0000000000000000000000000000000000000000000000000000000008152600401611ad790613ac3565b60405180910390fd5b5f60015f3373ffffffffffffffffffffffffffffffffffffffff1673ffffffffffffffffffffffffffffffffffffffff1681526020019081526020015f2090505f611b2a82612e61565b90505f8111611b6e576040517f08c379a0000000000000000000000000000000000000000000000000000000008152600401611b6590613b2b565b60405180910390fd5b80826003015f828254611b819190613b76565b925050819055507f000000000000000000000000000000000000000000000000000000000000000073ffffffffffffffffffffffffffffffffffffffff1663095ea7b37f0000000000000000000000000000000000000000000000000000000000000000836040518363ffffffff1660e01b8152600401611c03929190613ba9565b6020604051808303815f875af1158015611c1f573d5f5f3e3d5ffd5b505050506040513d601f19601f82011682018060405250810190611c439190613bfa565b505f6040518060a001604052807f0000000000000000000000000000000000000000000000000000000000000000610bb87f00000000000000000000000000000000000000000000000000000000000000006101f47f0000000000000000000000000000000000000000000000000000000000000000604051602001611ccd95949392919061419d565b60405160208183030381529060405281526020013373ffffffffffffffffffffffffffffffffffffffff1681526020014281526020018381526020018681525090507f000000000000000000000000000000000000000000000000000000000000000073ffffffffffffffffffffffffffffffffffffffff1663c04b8d59826040518263ffffffff1660e01b8152600401611d6891906142c0565b6020604051808303815f875af1158015611d84573d5f5f3e3d5ffd5b505050506040513d601f19601f82011682018060405250810190611da89190613ef6565b93503373ffffffffffffffffffffffffffffffffffffffff167f63f98a8cd4a8a366502d8c9f1d453343ff2d759b4e4d3e6319967eae305aea408386604051611df2929190613d5d565b60405180910390a2505050611e05612e8c565b919050565b611e12612db8565b611e1b5f612ea6565b565b5f5f60015f8473ffffffffffffffffffffffffffffffffffffffff1673ffffffffffffffffffffffffffffffffffffffff1681526020019081526020015f209050806006015f9054906101000a900460ff161580611e7d57505f815f0154145b15611e8b575f915050611ee0565b5f611e946123ea565b90505f82600201549050808211611eb0575f9350505050611ee0565b5f8183611ebd91906142e0565b90508181855f0154611ecf9190614313565b611ed99190614381565b9450505050505b919050565b7f000000000000000000000000000000000000000000000000000000000000000081565b6005602052805f5260405f205f915090505481565b5f5f5f9054906101000a900473ffffffffffffffffffffffffffffffffffffffff16905090565b62093a8081565b6003602052805f5260405f205f915054906101000a900460ff1681565b7f000000000000000000000000000000000000000000000000000000000000000081565b5f5f611f9883611e1d565b90505f60015f8573ffffffffffffffffffffffffffffffffffffffff1673ffffffffffffffffffffffffffffffffffffffff1681526020019081526020015f2090505f81600401548260030154611fef9190613b76565b90508083111561200f57808361200591906142e0565b9350505050612016565b5f93505050505b919050565b5f612024612e3f565b60015f3373ffffffffffffffffffffffffffffffffffffffff1673ffffffffffffffffffffffffffffffffffffffff1681526020019081526020015f206006015f9054906101000a900460ff166120b0576040517f08c379a00000000000000000000000000000000000000000000000000000000081526004016120a790613ac3565b60405180910390fd5b5f60015f3373ffffffffffffffffffffffffffffffffffffffff1673ffffffffffffffffffffffffffffffffffffffff1681526020019081526020015f2090505f6120fa82612e61565b90505f811161213e576040517f08c379a000000000000000000000000000000000000000000000000000000000815260040161213590613b2b565b60405180910390fd5b80826003015f8282546121519190613b76565b925050819055507f000000000000000000000000000000000000000000000000000000000000000073ffffffffffffffffffffffffffffffffffffffff1663095ea7b37f0000000000000000000000000000000000000000000000000000000000000000836040518363ffffffff1660e01b81526004016121d3929190613ba9565b6020604051808303815f875af11580156121ef573d5f5f3e3d5ffd5b505050506040513d601f19601f820116820180604052508101906122139190613bfa565b505f6040518061010001604052807f000000000000000000000000000000000000000000000000000000000000000073ffffffffffffffffffffffffffffffffffffffff1681526020017f000000000000000000000000000000000000000000000000000000000000000073ffffffffffffffffffffffffffffffffffffffff1681526020018662ffffff1681526020013373ffffffffffffffffffffffffffffffffffffffff1681526020014281526020018381526020018781526020015f73ffffffffffffffffffffffffffffffffffffffff1681525090507f000000000000000000000000000000000000000000000000000000000000000073ffffffffffffffffffffffffffffffffffffffff1663414bf389826040518263ffffffff1660e01b81526004016123479190613ec8565b6020604051808303815f875af1158015612363573d5f5f3e3d5ffd5b505050506040513d601f19601f820116820180604052508101906123879190613ef6565b93503373ffffffffffffffffffffffffffffffffffffffff167f63f98a8cd4a8a366502d8c9f1d453343ff2d759b4e4d3e6319967eae305aea4083866040516123d1929190613d5d565b60405180910390a25050506123e4612e8c565b92915050565b5f7f000000000000000000000000000000000000000000000000000000000000000073ffffffffffffffffffffffffffffffffffffffff1663035faf826040518163ffffffff1660e01b8152600401602060405180830381865afa158015612454573d5f5f3e3d5ffd5b505050506040513d601f19601f820116820180604052508101906124789190613ef6565b905090565b7f000000000000000000000000000000000000000000000000000000000000000081565b5f5f5f5f5f60015f8773ffffffffffffffffffffffffffffffffffffffff1673ffffffffffffffffffffffffffffffffffffffff1681526020019081526020015f209050806006015f9054906101000a900460ff1661250c575f5f5f5f9450945094509450506125ee565b805f015494505f61251b6123ea565b9050670de0b6b3a764000081876125329190614313565b61253c9190614381565b94505f670de0b6b3a76400008360010154886125589190614313565b6125629190614381565b9050808611612571575f61257e565b808661257d91906142e0565b5b94505f836005015411801561259257505f81115b156125ea575f8360050154426125a891906142e0565b90505f8111156125e85780826125be9190614313565b6127106301e13380886125d19190614313565b6125db9190614313565b6125e59190614381565b94505b505b5050505b9193509193565b6125fd612e3f565b60015f3373ffffffffffffffffffffffffffffffffffffffff1673ffffffffffffffffffffffffffffffffffffffff1681526020019081526020015f206006015f9054906101000a900460ff16612689576040517f08c379a000000000000000000000000000000000000000000000000000000000815260040161268090613ac3565b60405180910390fd5b5f60025f3373ffffffffffffffffffffffffffffffffffffffff1673ffffffffffffffffffffffffffffffffffffffff1681526020019081526020015f209050806002015f9054906101000a900460ff16612719576040517f08c379a000000000000000000000000000000000000000000000000000000000815260040161271090613dce565b60405180910390fd5b8060010154421015612760576040517f08c379a0000000000000000000000000000000000000000000000000000000008152600401612757906143fb565b60405180910390fd5b5f60015f3373ffffffffffffffffffffffffffffffffffffffff1673ffffffffffffffffffffffffffffffffffffffff1681526020019081526020015f2090505f825f0154905080825f015f8282546127b991906142e0565b925050819055508060065f8282546127d191906142e0565b9250508190555060025f3373ffffffffffffffffffffffffffffffffffffffff1673ffffffffffffffffffffffffffffffffffffffff1681526020019081526020015f205f5f82015f9055600182015f9055600282015f6101000a81549060ff021916905550507f000000000000000000000000000000000000000000000000000000000000000073ffffffffffffffffffffffffffffffffffffffff1663a9059cbb33836040518363ffffffff1660e01b8152600401612893929190613ba9565b6020604051808303815f875af11580156128af573d5f5f3e3d5ffd5b505050506040513d601f19601f820116820180604052508101906128d39190613bfa565b612912576040517f08c379a000000000000000000000000000000000000000000000000000000000815260040161290990613c6f565b60405180910390fd5b3373ffffffffffffffffffffffffffffffffffffffff167f6a0d6da0beb3b4dc509c4559b55ca29b5f90af6d351a3f9365bb5ab6b572c9608260405161295891906131e7565b60405180910390a250505061296b612e8c565b565b66038d7ea4c6800081565b612980612e3f565b66038d7ea4c680008210156129ca576040517f08c379a00000000000000000000000000000000000000000000000000000000081526004016129c190614463565b60405180910390fd5b7f000000000000000000000000000000000000000000000000000000000000000073ffffffffffffffffffffffffffffffffffffffff166323b872dd3330856040518463ffffffff1660e01b8152600401612a2793929190614481565b6020604051808303815f875af1158015612a43573d5f5f3e3d5ffd5b505050506040513d601f19601f82011682018060405250810190612a679190613bfa565b612aa6576040517f08c379a0000000000000000000000000000000000000000000000000000000008152600401612a9d90613c6f565b60405180910390fd5b5f7f000000000000000000000000000000000000000000000000000000000000000073ffffffffffffffffffffffffffffffffffffffff1663035faf826040518163ffffffff1660e01b8152600401602060405180830381865afa158015612b10573d5f5f3e3d5ffd5b505050506040513d601f19601f82011682018060405250810190612b349190613ef6565b90505f60015f3373ffffffffffffffffffffffffffffffffffffffff1673ffffffffffffffffffffffffffffffffffffffff1681526020019081526020015f209050806006015f9054906101000a900460ff16612c685783815f01819055508181600101819055508181600201819055506001816006015f6101000a81548160ff0219169083151502179055504281600501819055505f831115612c63578260055f3373ffffffffffffffffffffffffffffffffffffffff1673ffffffffffffffffffffffffffffffffffffffff1681526020019081526020015f20819055503373ffffffffffffffffffffffffffffffffffffffff167fd1b844701695237443dd884ed7193d9c8788f3befd35adc0910472eb166f330684604051612c5a91906131e7565b60405180910390a25b612c8c565b612c7181612e61565b5083815f015f828254612c849190613b76565b925050819055505b8360065f828254612c9d9190613b76565b925050819055503373ffffffffffffffffffffffffffffffffffffffff167f73a19dd210f1a7f902193214c0ee91dd35ee5b4d920cba8d519eca65a7b488ca8584604051612cec929190613d5d565b60405180910390a25050612cfe612e8c565b5050565b612d0a612db8565b5f73ffffffffffffffffffffffffffffffffffffffff168173ffffffffffffffffffffffffffffffffffffffff1603612d7a575f6040517f1e4fbdf7000000000000000000000000000000000000000000000000000000008152600401612d7191906135b2565b60405180910390fd5b612d8381612ea6565b50565b6002602052805f5260405f205f91509050805f015490806001015490806002015f9054906101000a900460ff16905083565b612dc0612f67565b73ffffffffffffffffffffffffffffffffffffffff16612dde611f1e565b73ffffffffffffffffffffffffffffffffffffffff1614612e3d57612e01612f67565b6040517f118cdaa7000000000000000000000000000000000000000000000000000000008152600401612e3491906135b2565b60405180910390fd5b565b612e47612f6e565b6002612e59612e54612faf565b612fd8565b5f0181905550565b5f5f612e6b6123ea565b90505f612e7733611e1d565b90508184600201819055508092505050919050565b6001612e9e612e99612faf565b612fd8565b5f0181905550565b5f5f5f9054906101000a900473ffffffffffffffffffffffffffffffffffffffff169050815f5f6101000a81548173ffffffffffffffffffffffffffffffffffffffff021916908373ffffffffffffffffffffffffffffffffffffffff1602179055508173ffffffffffffffffffffffffffffffffffffffff168173ffffffffffffffffffffffffffffffffffffffff167f8be0079c531659141344cd1fd0a4f28419497f9722a3daafe3b4186f6b6457e060405160405180910390a35050565b5f33905090565b612f76612fe1565b15612fad576040517f3ee5aeb500000000000000000000000000000000000000000000000000000000815260040160405180910390fd5b565b5f7f9b779b17422d0df92223018b32b4d1fa46e071723d6817e2486d003becc55f005f1b905090565b5f819050919050565b5f6002612ff4612fef612faf565b612fd8565b5f015414905090565b5f5ffd5b5f5ffd5b5f73ffffffffffffffffffffffffffffffffffffffff82169050919050565b5f61302e82613005565b9050919050565b61303e81613024565b8114613048575f5ffd5b50565b5f8135905061305981613035565b92915050565b5f6020828403121561307457613073612ffd565b5b5f6130818482850161304b565b91505092915050565b5f819050919050565b61309c8161308a565b82525050565b5f8115159050919050565b6130b6816130a2565b82525050565b5f60e0820190506130cf5f83018a613093565b6130dc6020830189613093565b6130e96040830188613093565b6130f66060830187613093565b6131036080830186613093565b61311060a0830185613093565b61311d60c08301846130ad565b98975050505050505050565b5f5ffd5b5f5ffd5b5f5ffd5b5f5f83601f84011261314a57613149613129565b5b8235905067ffffffffffffffff8111156131675761316661312d565b5b60208301915083600182028301111561318357613182613131565b5b9250929050565b5f5f5f604084860312156131a1576131a0612ffd565b5b5f6131ae8682870161304b565b935050602084013567ffffffffffffffff8111156131cf576131ce613001565b5b6131db86828701613135565b92509250509250925092565b5f6020820190506131fa5f830184613093565b92915050565b6132098161308a565b8114613213575f5ffd5b50565b5f8135905061322481613200565b92915050565b5f6020828403121561323f5761323e612ffd565b5b5f61324c84828501613216565b91505092915050565b5f6060820190506132685f830186613093565b6132756020830185613093565b61328260408301846130ad565b949350505050565b5f81519050919050565b5f82825260208201905092915050565b8281835e5f83830152505050565b5f601f19601f8301169050919050565b5f6132cc8261328a565b6132d68185613294565b93506132e68185602086016132a4565b6132ef816132b2565b840191505092915050565b5f6020820190508181035f83015261331281846132c2565b905092915050565b5f5f83601f84011261332f5761332e613129565b5b8235905067ffffffffffffffff81111561334c5761334b61312d565b5b60208301915083602082028301111561336857613367613131565b5b9250929050565b5f5f83601f84011261338457613383613129565b5b8235905067ffffffffffffffff8111156133a1576133a061312d565b5b6020830191508360208202830111156133bd576133bc613131565b5b9250929050565b5f5f5f5f604085870312156133dc576133db612ffd565b5b5f85013567ffffffffffffffff8111156133f9576133f8613001565b5b6134058782880161331a565b9450945050602085013567ffffffffffffffff81111561342857613427613001565b5b6134348782880161336f565b925092505092959194509250565b5f819050919050565b5f61346561346061345b84613005565b613442565b613005565b9050919050565b5f6134768261344b565b9050919050565b5f6134878261346c565b9050919050565b6134978161347d565b82525050565b5f6020820190506134b05f83018461348e565b92915050565b5f5f5f5f606085870312156134ce576134cd612ffd565b5b5f6134db8782880161304b565b94505060206134ec87828801613216565b935050604085013567ffffffffffffffff81111561350d5761350c613001565b5b61351987828801613135565b925092505092959194509250565b5f6101008201905061353b5f83018b613093565b613548602083018a613093565b6135556040830189613093565b6135626060830188613093565b61356f6080830187613093565b61357c60a0830186613093565b61358960c0830185613093565b61359660e08301846130ad565b9998505050505050505050565b6135ac81613024565b82525050565b5f6020820190506135c55f8301846135a3565b92915050565b5f6020820190506135de5f8301846130ad565b92915050565b5f62ffffff82169050919050565b6135fb816135e4565b8114613605575f5ffd5b50565b5f81359050613616816135f2565b92915050565b5f5f6040838503121561363257613631612ffd565b5b5f61363f85828601613216565b925050602061365085828601613608565b9150509250929050565b5f6136648261346c565b9050919050565b6136748161365a565b82525050565b5f60208201905061368d5f83018461366b565b92915050565b5f6080820190506136a65f830187613093565b6136b36020830186613093565b6136c06040830185613093565b6136cd6060830184613093565b95945050505050565b5f5f604083850312156136ec576136eb612ffd565b5b5f6136f985828601613216565b925050602061370a85828601613216565b9150509250929050565b5f82905092915050565b7f4e487b71000000000000000000000000000000000000000000000000000000005f52604160045260245ffd5b7f4e487b71000000000000000000000000000000000000000000000000000000005f52602260045260245ffd5b5f600282049050600182168061378f57607f821691505b6020821081036137a2576137a161374b565b5b50919050565b5f819050815f5260205f209050919050565b5f6020601f8301049050919050565b5f82821b905092915050565b5f600883026138047fffffffffffffffffffffffffffffffffffffffffffffffffffffffffffffffff826137c9565b61380e86836137c9565b95508019841693508086168417925050509392505050565b5f61384061383b6138368461308a565b613442565b61308a565b9050919050565b5f819050919050565b61385983613826565b61386d61386582613847565b8484546137d5565b825550505050565b5f5f905090565b613884613875565b61388f818484613850565b505050565b5f5b828110156138b5576138aa5f82840161387c565b600181019050613896565b505050565b601f8211156139085782821115613907576138d4816137a8565b6138dd836137ba565b6138e6856137ba565b60208610156138f3575f90505b80830161390282840382613894565b505050505b5b505050565b5f82821c905092915050565b5f6139285f198460080261390d565b1980831691505092915050565b5f6139408383613919565b9150826002028217905092915050565b61395a8383613714565b67ffffffffffffffff8111156139735761397261371e565b5b61397d8254613778565b6139888282856138ba565b5f601f8311600181146139b5575f84156139a3578287013590505b6139ad8582613935565b865550613a14565b601f1984166139c3866137a8565b5f5b828110156139ea578489013582556001820191506020850194506020810190506139c5565b86831015613a075784890135613a03601f891682613919565b8355505b6001600288020188555050505b50505050505050565b828183375f83830152505050565b5f613a368385613294565b9350613a43838584613a1d565b613a4c836132b2565b840190509392505050565b5f6020820190508181035f830152613a70818486613a2b565b90509392505050565b7f4e6f20747265617375727920666f756e640000000000000000000000000000005f82015250565b5f613aad601183613294565b9150613ab882613a79565b602082019050919050565b5f6020820190508181035f830152613ada81613aa1565b9050919050565b7f4e6f207969656c640000000000000000000000000000000000000000000000005f82015250565b5f613b15600883613294565b9150613b2082613ae1565b602082019050919050565b5f6020820190508181035f830152613b4281613b09565b9050919050565b7f4e487b71000000000000000000000000000000000000000000000000000000005f52601160045260245ffd5b5f613b808261308a565b9150613b8b8361308a565b9250828201905080821115613ba357613ba2613b49565b5b92915050565b5f604082019050613bbc5f8301856135a3565b613bc96020830184613093565b9392505050565b613bd9816130a2565b8114613be3575f5ffd5b50565b5f81519050613bf481613bd0565b92915050565b5f60208284031215613c0f57613c0e612ffd565b5b5f613c1c84828501613be6565b91505092915050565b7f5472616e73666572206661696c656400000000000000000000000000000000005f82015250565b5f613c59600f83613294565b9150613c6482613c25565b602082019050919050565b5f6020820190508181035f830152613c8681613c4d565b9050919050565b7f496e73756666696369656e74207072696e636970616c000000000000000000005f82015250565b5f613cc1601683613294565b9150613ccc82613c8d565b602082019050919050565b5f6020820190508181035f830152613cee81613cb5565b9050919050565b7f5769746864726177616c2070656e64696e6700000000000000000000000000005f82015250565b5f613d29601283613294565b9150613d3482613cf5565b602082019050919050565b5f6020820190508181035f830152613d5681613d1d565b9050919050565b5f604082019050613d705f830185613093565b613d7d6020830184613093565b9392505050565b7f4e6f2070656e64696e67000000000000000000000000000000000000000000005f82015250565b5f613db8600a83613294565b9150613dc382613d84565b602082019050919050565b5f6020820190508181035f830152613de581613dac565b9050919050565b613df581613024565b82525050565b613e04816135e4565b82525050565b613e138161308a565b82525050565b613e2281613005565b82525050565b61010082015f820151613e3d5f850182613dec565b506020820151613e506020850182613dec565b506040820151613e636040850182613dfb565b506060820151613e766060850182613dec565b506080820151613e896080850182613e0a565b5060a0820151613e9c60a0850182613e0a565b5060c0820151613eaf60c0850182613e0a565b5060e0820151613ec260e0850182613e19565b50505050565b5f61010082019050613edc5f830184613e28565b92915050565b5f81519050613ef081613200565b92915050565b5f60208284031215613f0b57613f0a612ffd565b5b5f613f1884828501613ee2565b91505092915050565b7f4c656e677468206d69736d6174636800000000000000000000000000000000005f82015250565b5f613f55600f83613294565b9150613f6082613f21565b602082019050919050565b5f6020820190508181035f830152613f8281613f49565b9050919050565b7f4e487b71000000000000000000000000000000000000000000000000000000005f52603260045260245ffd5b5f5ffd5b5f5ffd5b5f5ffd5b5f5f83356001602003843603038112613fde57613fdd613fb6565b5b80840192508235915067ffffffffffffffff82111561400057613fff613fba565b5b60208301925060018202360383131561401c5761401b613fbe565b5b509250929050565b7f526563697069656e74206e6f7420616c6c6f776c6973746564000000000000005f82015250565b5f614058601983613294565b915061406382614024565b602082019050919050565b5f6020820190508181035f8301526140858161404c565b9050919050565b7f496e73756666696369656e74207969656c6400000000000000000000000000005f82015250565b5f6140c0601283613294565b91506140cb8261408c565b602082019050919050565b5f6020820190508181035f8301526140ed816140b4565b9050919050565b5f6040820190506141075f830186613093565b818103602083015261411a818486613a2b565b9050949350505050565b5f8160601b9050919050565b5f61413a82614124565b9050919050565b5f61414b82614130565b9050919050565b61416361415e82613024565b614141565b82525050565b5f8160e81b9050919050565b5f61417f82614169565b9050919050565b614197614192826135e4565b614175565b82525050565b5f6141a88288614152565b6014820191506141b88287614186565b6003820191506141c88286614152565b6014820191506141d88285614186565b6003820191506141e88284614152565b6014820191508190509695505050505050565b5f81519050919050565b5f82825260208201905092915050565b5f61421f826141fb565b6142298185614205565b93506142398185602086016132a4565b614242816132b2565b840191505092915050565b5f60a083015f8301518482035f8601526142678282614215565b915050602083015161427c6020860182613dec565b50604083015161428f6040860182613e0a565b5060608301516142a26060860182613e0a565b5060808301516142b56080860182613e0a565b508091505092915050565b5f6020820190508181035f8301526142d8818461424d565b905092915050565b5f6142ea8261308a565b91506142f58361308a565b925082820390508181111561430d5761430c613b49565b5b92915050565b5f61431d8261308a565b91506143288361308a565b92508282026143368161308a565b9150828204841483151761434d5761434c613b49565b5b5092915050565b7f4e487b71000000000000000000000000000000000000000000000000000000005f52601260045260245ffd5b5f61438b8261308a565b91506143968361308a565b9250826143a6576143a5614354565b5b828204905092915050565b7f4c6f636b656400000000000000000000000000000000000000000000000000005f82015250565b5f6143e5600683613294565b91506143f0826143b1565b602082019050919050565b5f6020820190508181035f830152614412816143d9565b9050919050565b7f42656c6f77206d696e696d756d000000000000000000000000000000000000005f82015250565b5f61444d600d83613294565b915061445882614419565b602082019050919050565b5f6020820190508181035f83015261447a81614441565b9050919050565b5f6060820190506144945f8301866135a3565b6144a160208301856135a3565b6144ae6040830184613093565b94935050505056fea2646970667358221220e92db622402c8437aa3339d4031011c3105f3fcf5629a114a1ed34d818f92ecd64736f6c63430008210033","linkReferences":{}},"methodIdentifiers":{"MIN_DEPOSIT()":"e1e158a5","USDC()":"89a30271","WETH()":"ad5c4648","WITHDRAWAL_LOCK()":"a0f2ed07","agentERC8004Id(address)":"8bd34532","allowlistAIProviders(address[],string[])":"43f7e6d7","allowlistSpending(address,string)":"09d9be62","cancelWithdrawal()":"22611280","completeWithdrawal()":"e03ff7cb","delistSpending(address)":"46eefd03","deposit(uint256,uint256)":"e2bbb158","getAccruedYield(address)":"78b89d90","getAvailableYield(address)":"b2325876","getCurrentStEthPerToken()":"c30a996b","getTreasuryInfo(address)":"4f1eb129","getWithdrawalInfo(address)":"208120a7","getYieldStats(address)":"d7f91f31","initiateWithdrawal(uint256)":"12edde5e","owner()":"8da5cb5b","pendingWithdrawals(address)":"f3f43703","renounceOwnership()":"715018a6","serviceProviderNames(address)":"252c8927","spendYield(address,uint256,string)":"4bdc4b30","spendingAllowlist(address)":"a2bda5cb","swapRouter()":"c31c9c07","swapYieldToETH(uint256)":"32fa59f7","swapYieldToUSDC(uint256)":"5dbd02c9","swapYieldToUSDCSingle(uint256,uint24)":"b4e0f5d9","sweepYield()":"0fa55805","totalPrincipal()":"4b1533b2","transferOwnership(address)":"f2fde38b","treasuries(address)":"0849b234","wstETH()":"4aa07e64"},"id":26}